:020000040800F2
:10000000C077002079C20008590400085B0400088A
:100010005D0400085F04000861040008000000009F
:10002000000000000000000000000000B90200080D
:100030006304000800000000FD020008E54000081D
:1000400093C2000893C2000893C2000893C200083C
:1000500093C2000893C2000893C2000893C200082C
:1000600093C2000893C2000893C2000893C200081C
:1000700093C2000893C2000893C2000893C200080C
:1000800093C2000893C2000893C2000893C20008FC
:10009000F11B000893C2000893C2000893C2000835
:1000A00093C20008A52E000893C200081F2C000868
:1000B00051200008612000087120000893C2000848
:1000C00093C2000893C2000893C2000893C20008BC
:1000D00093C20008A5380008F9340008A5370008C5
:1000E00093C2000893C2000893C2000893C200089C
:1000F00093C2000893C2000893C2000893C200088C
:1001000093C2000893C200088120000893C200082F
:1001100093C2000893C2000893C2000893C200086B
:1001200093C2000893C2000893C2000893C200085B
:1001300000F002F800F0B0F80AA090E8000C824449
:100140008344AAF10107DA4501D100F0A5F8AFF226
:10015000090EBAE80F0013F0010F18BFFB1A43F0A5
:1001600001031847B0B50100D0B501000A444FF0B3
:10017000000C10F8013B13F0070408BF10F8014B06
:100180001D1108BF10F8015B641E05D010F8016B4B
:10019000641E01F8016BF9D113F0080F1EBF10F8AF
:1001A000014BAD1C0C1B09D16D1E58BF01F801CBD2
:1001B000FAD505E014F8016B01F8016B6D1EF9D555
:1001C0009142D6D37047000000230024002500266A
:1001D000103A28BF78C1FBD8520728BF30C148BFAA
:1001E0000B6070476E2913F02A87702913F0F38390
:1001F000662919F0FC80652919F0F980672919F042
:10020000F680612919F0F58003681B0A28BF41F0C8
:100210008001692913F06483642913F061837529CF
:1002200013F05E836F2914F02F82782913F0BF83B7
:10023000E92914F0C981E42914F0C681F52914F0E4
:10024000C381EF2914F02C82F82913F0BE830368D0
:10025000DB0928BF41F08001632914F0388173293C
:1002600014F03D81E32914F03B84F32914F0408419
:10027000002070471FB514F01DFA04000020002173
:1002800017F0D0FD401C60600020002117F0B4FD85
:10029000E0601FBD10B510BD14F0C4FC1146FFF79F
:1002A000E9FF00F08EF814F0EBFC03B4FFF7F2FF67
:1002B00003BC03F037FF0000224B19680868B0E860
:1002C000F00F80F30988BFF36F8F4FF0000080F3C9
:1002D00011884EF00D0E70470000000006480068BF
:1002E000006880F3088862B661B6BFF34F8FBFF332
:1002F0006F8F00DF00BF00BF08ED00E0EFF3098063
:10030000BFF36F8F0F4B1A6820E9F00F106008B52C
:100310004FF0500080F31188BFF34F8FBFF36F8F02
:100320000DF052F84FF0000080F31188BDE808404E
:1003300019680868B0E8F00F80F30988BFF36F8F81
:10034000704700BF8C020020EFF30580704700006B
:100350007CB50EF0EDF900240525CDE900542346C7
:10036000802221A125480CF0A1FDCDE900540023F5
:10037000802223A126480CF099FDCDE900540023EA
:10038000802224A127480CF091FD0320CDE9000430
:100390004FF4007500232A4623A126480CF086FD61
:1003A0000420CDE9000400232A4623A125480CF0AF
:1003B0007DFD254800680CF0A4FDBDE87C400EF0F2
:1003C000D1B91CB501F090F91F4904200023CDE9F3
:1003D000000182011DA1AFF287000CF067FD0DF056
:1003E0000BF900201CBD00004765745F436F6D6D05
:1003F0006F6E645F5461736B00000000350A000883
:100400004765745F53656E736F725F5461736B0001
:10041000350B0008436163756C6174655F546173EB
:100420006B000000810E000853686F775F546173A2
:100430006B00000031130008444154415F74617344
:100440006B000000E53A0008000000207374617240
:10045000745F7461736B00007047FEE7FEE7FEE7B0
:10046000FEE770470CB500224C48009201920168EB
:1004700041F4803101604FF4A063016801F4003160
:1004800001910099491C0091019911B90099994273
:10049000F3D10168890333D50121019140490A68EC
:1004A00042F010020A600A6822F003020A600A6839
:1004B00042F002020A60416841604168416041685F
:1004C00041F480614160416821F47C1141604168E0
:1004D00041F4E8114160016841F0807101600168F8
:1004E0008901FCD5416821F003014160416841F078
:1004F000020141604168C1F381010229FAD10CBDBA
:1005000001920CBD254810B5016841F00101016060
:100510004168244A114041600168234A114001604A
:10052000016821F480210160416821F4FE014160ED
:100530004FF41F018160FFF795FF1C494FF00060E9
:10054000086010BD154A10B55068194B10F00C0129
:10055000184803D0042901D0082901D0036012E013
:100560005168536801F470114FF0020413F4803F96
:1005700004EB914102D053689B0301D50E4B00E080
:100580000B4B5943016051680A4AC1F30311121D14
:10059000515C0268CA40026010BD000000100240B9
:1005A000002002400000FFF8FFFFF6FE08ED00E02B
:1005B00000127A000400002000093D002DE9F84FE8
:1005C00004469046FE49104618F098FCFD4918F084
:1005D00007FB18F065FA0546009117F0DBFB4FF0BA
:1005E000FF394A4618F039FFDFF8DCA300225346F2
:1005F00018F07AF806460F46204618F051FA8B4656
:10060000044632463B4617F03BFF17F021FCEF4E05
:10061000F0622846009917F0BDFB4A4618F01DFF0E
:100620000022534617F046FC22465B4617F028FF8F
:1006300017F00EFC44463063204618F031FAB4F54A
:10064000000F02DBE24AE34B01E0E34AE34B17F021
:1006500017FF17F0FDFBE24980F000400860BDE89D
:10066000F88F2DE9F05FD94C0646DFF878A3DFF864
:1006700078B34FF40009DFF87483206A15460F46FB
:100680004E4503DB514618F037FA04E0464503D3E4
:10069000514618F0F3FD2062CC484F45406A03DB19
:1006A000514618F029FA04E0474503D3514618F0A3
:1006B000E5FD6062C5484D45806A03DB514618F090
:1006C0001BFA04E0454503D3514618F0D7FDA0625C
:1006D00016F0FF4F06D086F000423146206A00F047
:1006E000D6FF03E05946206A18F07AFA17F0FF4F58
:1006F000206206D087F000423946606A00F0C7FFEA
:1007000003E05946606A18F06BFA606215F0FF402A
:1007100005D085F000422946A06A00F0B8FFA0622B
:10072000BDE8F09F2DE9F041A84CE078217908431D
:1007300061790843A1790843E179084315D1AC48B0
:100740000025AD4E0278AB48AC4F00684142092A03
:1007500026D2DFE802F025050C1216181A211B001C
:1007600018F03CFBC4E90505E561BDE8F08118F02F
:1007700035FB143484E86100F7E76561C4E9065687
:10078000F3E70846F3E70846EAE7084618F026FBD1
:10079000143484E8A100E8E76561C4E90657E4E79A
:1007A0006561A561E0E72DE9F0414FF4FA64944DED
:1007B000671022463946286800F059FF914E28609C
:1007C00022463946306800F052FF22468E4C306097
:1007D0003946206800F04BFF2060A0F2DC543168FD
:1007E0002D686FF06300A1F2DC51A5F2DC55844264
:1007F00002DD642C00DA0024814202DD642900DA83
:100800000021854202DD642D00DA002579484FF091
:10081000FA080668714391FBF8F018F0DFFA6B4FA5
:100820007443786194FBF8F018F0D8FAB861684224
:1008300070434FF4FA7190FBF1F018F0CFFAF861C1
:100840007878002891D000217961B961401EF96162
:1008500078708AE72DE9F0415C4EB079002884D0A9
:100860006A486C4904786A480D786FF01301007883
:10087000803C8038803D8C4202DD142C00DA00245C
:10088000884202DD142800DA00208D4202DD142D9A
:1008900000DA0025574940424FF064080F6878435A
:1008A00090FBF8F018F09AFA7C43706194FBF8F032
:1008B00018F094FAB06168427843962190FBF1F009
:1008C00018F08CFAF06150E72DE9F05F3F4DDFF84A
:1008D000FCA0343568789AF802108046884202D02D
:1008E0004D4981F80080E878A9784FF47A7600EBDA
:1008F000012004B294FBF6F006FB104017F059FDFE
:10090000464A474B17F0BCFD074694FBF6F0894674
:1009100017F04FFD4B463A4617F0CCFA17F098FA0D
:10092000CAF80800834668792979544600EB01200B
:1009300007B297FBF6F006FB107017F03AFD374A46
:10094000374B17F09DFD814697FBF6F08A4617F06E
:1009500030FD4A46534617F0ADFA17F079FAE060D9
:100960008246E879A97900EB012005B295FBF6F003
:1009700006FB105017F01DFD284A294B17F080FD8B
:10098000074695FBF6F0894617F013FD4B463A46AD
:1009900017F090FA17F05CFA0546206121480168CB
:1009A00058460E4618F0AAFA60613146504618F0D3
:1009B000A5FAA0610349284618F0A0FA004933E0DF
:1009C000DA0F4940000034430000F03F18000020D7
:1009D0000C022B8716D9F63F1904560E2DB2FD3F97
:1009E0004001002000002041CDCC8C3F00008080E1
:1009F00034010020380100200000F0C10000F04167
:100A000070010020740100207C010020A001002062
:100A1000A1010020A201002035010020FCA9F1D293
:100A20004D62503FDC00002018F0DAF8E06184F8F5
:100A3000028075E608B503F063FB3A4C3A4EDFF8E6
:100A4000EC80DFF8EC9000900A2168460CF096FBF1
:100A5000606910F0FF4F07D1A06910F0FF4F03D17C
:100A6000E06910F0FF4F01D00220207002F0DDFAA3
:100A70002079012805D06179012902D0E178012986
:100A80000DD1D4E90F12C4E90D12E178012904D087
:100A9000012802D06079012801D1FFF715FFA07964
:100AA00008B1FFF7D7FEE079012801D1FFF77BFEFF
:100AB000E0782179084361790843A1790843E17915
:100AC000084301D1FFF72EFE3568684218F086F919
:100AD0000746284618F082F901463A46606900F058
:100AE000D6FD60613568684218F078F907462846F7
:100AF00018F074F901463A46A06900F0C8FDA061FB
:100B000042464946E06900F0C2FD0246E061D4E990
:100B10000501FFF7A6FD04F1200007C8FFF74EFD11
:100B200092E7000018000020380100200000A041DA
:100B30000000A0C108B503F0E3FA3A4C3A4FDFF8E1
:100B4000EC80DFF8EC903B4E3B4D40F24C4A00907D
:100B50000A2168460CF012FB022001F05CFA4042C8
:100B6000A860032001F057FAE860042001F053FA6E
:100B700040422861052001F04EFA4042686101F0D0
:100B8000CAFA216851451ADA2C4A2D492D4803F03A
:100B9000E5F8254A2549264803F0C7F82A4A2B4993
:100BA0002B4803F0A4F82068401C2060B9F800002E
:100BB0003080B8F8000070803888B08020E01F4A8C
:100BC0001F492048C4F800A003F0C8F8164A174986
:100BD000174803F0AAF81C4A1C491D4803F087F87F
:100BE0003188B9F80020511AA9F800107188B8F8B6
:100BF0000020511AA8F80010B0883988081A3880E7
:100C00002878401CC0B228700A28A1D10020287082
:100C100014210E2000F02BFE696818F06FF90D49C1
:100C2000086095E7EC010020DC010020DA010020DB
:100C3000D8010020FC01002068000020E201002013
:100C4000E0010020DE010020E8010020E601002094
:100C5000E401002044010020F0B5C34E002401252A
:100C6000059F002804DAC6F88841C6F88C5103E0D5
:100C7000C6F88851C6F88C4101DAC0F10000DFF8EF
:100C8000ECC2ACF80000002904DAC6F89451C6F8AA
:100C9000904103E0C6F89441C6F8905101DAC1F1E1
:100CA0000001B3480180B348B349002A04DDC0F80D
:100CB0009441C1F8B05103E0C0F89451C1F8B0417B
:100CC00001DAC2F10002AD480280AD48002B04DD1C
:100CD000C0F8BC41C0F8AC5103E0C0F8BC51C0F84A
:100CE000AC4101DAC3F10003A6480380A64807809F
:100CF000F0BD70B50D1A284618F070F8A34CA16825
:100D000018F0FCF80646A06B281A18F067F861681E
:100D100018F0F4F8314617F0EFFE0646606B18F055
:100D20005DF8314617F0E8FE18F01CF84FF4E15179
:100D30006063884202DC4942884200DA6163A5634D
:100D4000606B70BD70B50D1A284618F047F88F4CCF
:100D5000A16818F0D3F80646E06A281A18F03EF8A1
:100D6000616818F0CBF8314617F0C6FE0646A06A57
:100D700018F034F8314617F0BFFE17F0F3FF4FF4C8
:100D8000E151A062884202DC4942884200DAA16255
:100D9000E562A06A70BD70B50D1A284618F01EF8FD
:100DA0007A4CA16818F0AAF80646206A281A18F0AA
:100DB00015F8616818F0A2F8314617F09DFE064656
:100DC000E06918F00BF8314617F096FE17F0CAFFED
:100DD0004FF4E151E061884202DC4942884200DA86
:100DE000E1612562E06970BD70B50D1A284617F003
:100DF000F5FF664CA16818F081F806466069281A6C
:100E000017F0ECFF616818F079F8314617F074FEBE
:100E10000646206917F0E2FF314617F06DFE17F025
:100E2000A1FF4FF4E1512061884202DC494288422F
:100E300000DA21616561206970BD5549534A8842D5
:100E400003DB4D48D0F8000110B91078401C107039
:100E5000137850480021322B03D9012303701170FD
:100E600004E00078012801D0002070473F4A0120AB
:100E70001180121D1180121D1180121D11807047EA
:100E80001CB503F03DF9444D01900A2101A80CF076
:100E900075F92868FFF7D1FF0028F6D13F480068B0
:100EA00017F060FF01463E480068FFF79DFF374C92
:100EB000E0633C48006817F055FF01463A48006877
:100EC000FFF769FF20643948006817F04BFF0146BF
:100ED00037480068FFF736FF60643648006817F04F
:100EE00041FF014634480068FFF703FFA06434481F
:100EF0003249006818F002F8324917F071FE3249A1
:100F000017F0FAFD17F02EFF41F6F4267742E06461
:100F100032463946E06B00F0AAFBE06332463946C0
:100F2000206C00F0A4FB206432463946606C00F06F
:100F30009EFB606432463946A06C00F098FBA064CA
:100F400040F6C4124FF4FA71E06C00F090FBE064DC
:100F50000090A06C4342606C4242D4E90F014042D1
:100F6000FFF77AFE91E7000000002142343401408F
:100F70003834014000002242000023423C3401404A
:100F80000080214240340140402C0140800000207C
:100F900000002841350100204401002044000020C9
:100FA0007000002048000020740000206000002035
:100FB00078000020640000207C0000200000FA443B
:100FC00040010020000034430080BB44F8B5F148E4
:100FD000EF49006817F092FF17F0C4FEEE4E0021B3
:100FE000EEA27060084601F04CFC0D2000F011FCF0
:100FF00040F2AB21B0FBF1F20C24012300212820A8
:10100000009401F003FCE7A20021372001F039FC35
:10101000E64DB5F90400002809DAE5A200215A20BE
:1010200001F02FFC0094B5F90400424207E0E1A270
:1010300000215A2001F025FC0094B5F90420032377
:101040000021642001F0E2FBDBA20A21002001F074
:1010500018FCDB4DB5F9000000280ADAD4A20A21F9
:10106000412001F00EFC0094B5F900000523424236
:1010700008E0D0A20A21412001F003FC0094B5F958
:10108000002005230A214B2001F0C0FBCDA2142132
:10109000002001F0F6FBCC4DCC4F2868B84208D3B5
:1010A000C3A214210F2001F0ECFB286880F000405F
:1010B00005E0C0A214210F2001F0E3FB286817F01F
:1010C0006DFE0246142105230846009401F09EFBA4
:1010D000BF4D2868002809DAB5A214213C2001F090
:1010E000D0FB009428680523424207E0B1A21421F6
:1010F0003C2001F0C6FB00942A68052314214B20F4
:1011000001F084FBB3A21E21002001F0BAFBB24D16
:101110002868B84208D3A6A21E210F2001F0B1FB17
:10112000286880F0004005E0A2A21E210F2001F0F7
:10113000A8FB286817F032FE024605231E21142062
:10114000009401F063FBA54D2868002809DA98A2F5
:101150001E213C2001F095FB0094286805234242A3
:1011600007E094A21E213C2001F08BFB00942A682A
:1011700005231E214B2001F049FB99A228210020C4
:1011800001F07FFB974D2868002801DA88A200E073
:1011900088A22821142001F074FB00940423282144
:1011A0001E202A6801F032FB8FA228213C2001F08A
:1011B00068FB8E4D2868002809DA7DA2282150207E
:1011C00001F05FFB009428680423424207E079A203
:1011D0002821502001F055FB00942A68042328217F
:1011E0005A2001F013FB8248007808B181A214E074
:1011F0008248007808B182A20FE08348007808B1E5
:1012000082A20AE08348007808B183A205E08448FE
:10121000007808B183A200E084A23221002001F00E
:1012200030FB84480078A8B383A232212D2001F03E
:1012300028FB82A23221582001F023FB80A2322118
:101240006E2001F01EFB7068642590FBF5F202230E
:1012500032214B20009401F0D9FA7068022390FBF0
:10126000F5F105FB110232216220009401F0CEFA63
:10127000706890FBF5F105FB11000A2806DA0223DD
:10128000002232215C20009401F0C0FABDE8F84051
:1012900001F009BA6BA2C8E7F8B56B483C4D00688D
:1012A00017F0FEFB694A6A4B17F0EAF817F052F89C
:1012B000044668482946006817F020FE17F052FDE2
:1012C000354A01461078B0B10020634D10700026F9
:1012D0002A78012A11D010B33948B0F900305F489C
:1012E000B0F900205E48B0F9001001B05DA0BDE883
:1012F000F04012F083BA0120E7E75E48006817F07B
:1013000031FD04465C48006817F02CFD02465B483E
:10131000234601685AA012F071FA2E70F8BD5C489D
:101320000096CAB20378E1B25AA012F067FAF8BD8B
:1013300008B502F0E5FE0090142168460BF01EFF90
:10134000FFF7AAFFFFF742FE142000F02DFFF3E79E
:1013500070B51B48B0F9000017F040FD012102F004
:1013600009FC012002F02DFC0B4C00214D4AA0701D
:1013700061704D4D161D06E013885B06FCD56B5C55
:101380003380491C6170C9B28142F5D370BD000041
:101390000000C84244010020D400002054595045A8
:1013A0003A0000004249415300000000FC010020C7
:1013B0002D0000002B0000004759524F5F5A0000DB
:1013C000DC0100204C3A0000440000200000808036
:1013D00070000020523A00004800002074000020F5
:1013E0004D410000BC0000204D420000C000002024
:1013F0001E00002020505332200000001C0000205E
:1014000055415254310000001D00002055415254F6
:10141000330000001B0000202043414E200000004C
:101420001F00002020522D4320000000204150507A
:1014300020000000350100204F4646002E0000002D
:10144000560000004F204E00400100209A999999C3
:101450009999B93F200300203F010020DA010020C4
:10146000D80100207B4225643A25643A25647D2416
:1014700000000000880000208400002038010020C7
:101480007B4325643A25643A25647D2400000000EE
:101490005C0000207B4125643A25643A25643A25A6
:1014A000647D240000380140C40700202DE9F34F7B
:1014B000894C87B0216A0591089817F0DFFE6169B1
:1014C000009117F01BFDA16917F016FB04F144050C
:1014D0000490D5F804A0A068514617F0CFFED5F8C7
:1014E0000890494617F0CAFE7C4A1060E96881F00E
:1014F000004656609660E7688846D760009917F006
:10150000FDFC296817F0F8FA83463046009917F079
:10151000F5FC0646514617F0EFFA0390304649466F
:1015200017F0EAFA82463846009917F0E7FC414680
:1015300017F0E2FA81460499079817F09FFE80465B
:101540006062207817F092FC5946029017F0D6FCA2
:101550000646A0625146029817F0D0FCE062009067
:101560003146029817F0CAFC216917F0C5FA074600
:1015700020633946304617F033FB606301903946EB
:10158000009817F02DFBA0630090E663DDE90201EF
:1015900017F0B4FC074620643146019817F0AEFC02
:1015A000594617F0D9FD28603946019817F0A6FC76
:1015B000039917F0D1FD68603146009817F09EFC42
:1015C000514617F0C9FDA8603946009817F096FCFF
:1015D000494617F0C1FDE8604146019817F08EFCBE
:1015E000049917F089FAA0614146009817F086FC2B
:1015F000059917F081FA01462062089817F03EFE1F
:10160000E06109B0BDE8F08F2DE9F0418046084661
:1016100017F046FA324A334B16F032FF2E4C05468D
:101620000E46A06917F03CFA2A46334616F042FCF3
:101630000E46616805460F464FF07E5017F01EFEBD
:1016400017F02EFA2A46334616F01AFF05460E46C4
:101650003946404617F052FC17F022FA2A46334624
:1016600016F028FC16F0F4FBA061BDE8F081914271
:1016700006DA884200DA0846904200DD10467047DC
:10168000904200DA10468842F9DD0846704770B58E
:101690000E46044615461146304617F0FBFB0CD2A9
:1016A0003146204617F0F6FB00D234462946204644
:1016B00017F0F0FC0DD22C460BE02946204617F01F
:1016C000E9FB00D22C463146204617F0E3FC00D25D
:1016D0003446204670BD0000E000002010030020CA
:1016E0007B14AE47E17A743F38B54FF4407002F096
:1016F0007BFD02F09BFC00F025FD00F03CFD224C40
:101700000120C4F8A8014FF4FA7004F5D47402F073
:10171000C3FC0025256000F0DAFC01F0D1F800F0F0
:10172000C5FC4FF4E134204602F006FD4FF416509C
:1017300001F08BFE204601F0C2FF062303220221A6
:101740000120009500F0B2F800F026FB00F084FBC9
:1017500000F0CFFB00F016FC002141F61F4000F026
:101760004AFE472142F20F7001F046F900F012F8EC
:1017700000F056FE02F0B8FB01F0DBFC01F02DFE9C
:1017800003490248086038BD00802142ECC99842F4
:10179000DC00002030B587B001214FF4047003F065
:1017A00078FD4FF4004003F008FD1020ADF8140060
:1017B00000248DF8174005A9384803F02CFB384D5C
:1017C000284602F069FD4FF46020CDE902040120B3
:1017D0008DF804408DF8100000948DF8054069469E
:1017E000284602F075FD0121284602F099FD2846A1
:1017F00002F0B3FD284602F0B5FD0028FAD12846D4
:1018000002F0B7FD284602F0B9FD0028FAD107B072
:1018100030BD10B5224C014607230122204602F0BC
:10182000D7FD0121204602F0B0FD0221204602F042
:10183000A3FE0028F9D02046BDE8104002F00CBEFF
:1018400010B50E20FFF7E5FF16F0CAFD4FF0663227
:10185000144B16F015FE0022134B16F011FE6FF01C
:101860000B0217F0FAFDBDE8104016F0F1BA70B5A2
:101870000E46002407E0FFF7E3FF294617F03CF986
:10188000641C0546E4B2B442F5D3304617F0EEFAD4
:1018900001462846BDE8704017F0A2B9001001408B
:1018A0000024014066660A40000026402DE9FC5FE6
:1018B0000024E8B3E1B3DAB3D3B3491E401E01F00C
:1018C000FF09C7B2521E5B1E0121D6B29DB2084667
:1018D00003F0DFFC0121202003F0DBFC012148069E
:1018E00003F0E0FC01214FF4EB1003F01FFB02209A
:1018F000ADF8000003208DF802001820DFF80884FE
:101900008DF803006946404603F085FA4FF0010A5E
:10191000ADF800A048208DF803006946404603F06A
:101920007AFAFA4800230360016841F0010100E0FF
:1019300002E00160021D08E00120BDE8FC9F641C7C
:10194000A4B2642C01D90220F7E71168C907F6D0C8
:1019500001688346016001680160016801600168F7
:1019600041F0100101600168016001680160E74910
:101970001C310B60D1F80080DDF830C048EA8C7C67
:10198000C1F800C0D1F800C04CEA07670F60D1F879
:1019900000C04CEA09570F600F6847EA06460E6020
:1019A0000E682E430E60016821F0010101604FF6C0
:1019B000F07005E0641CA4B2844201D90320BCE7A6
:1019C0001168C907F6D1D248016841F001010160F0
:1019D000CF491C310A6822F001020A60CC4A0C325D
:1019E000146844F001041460021D14681460C84AAD
:1019F000143214681460C64A40321360121D13601A
:101A00000A6842F001020A6001680360BF481430AE
:101A1000016841F00201016014208DF804008DF886
:101A200005A003218DF806108DF807A001A802F08B
:101A3000E0FB01220221584603F0C8F800207CE7B1
:101A4000F0B50646B148059D08300468640101D52B
:101A5000002008E00468240101D5012003E00068AB
:101A6000C0003CD50220AB4C002704EB0014C4F8A6
:101A7000807599B3F600D4F880753743C4F8807543
:101A8000D4F8806546EA8101C4F88015D4F8801541
:101A900041EA4201C4F88015D4F8842503F00F010F
:101AA00022F00F02C4F88425D4F884250A43C4F830
:101AB00084252979D5F8052041EA0221C4F88C153E
:101AC0002978D5F8012041EA0221C4F88815D4F814
:101AD000801541F00101C4F88015F0BD01E0FF2040
:101AE000FBE77605C7E78949083128B1012810D0FE
:101AF00002281BD00520704708680A6800F0010022
:101B000002F002020243086800F0806042EA1060BE
:101B1000704708680A6800F0010002F00202024300
:101B2000086800F0006042EA5060704708680A6880
:101B300000F0010002F002020243086800F0805049
:101B400042EA9060704718B1012804D00020704725
:101B50006E480C3001E06D481030006800F0030062
:101B60007047F0B56B4CDDE9057504EB0014D4F853
:101B7000B06516F004061670D4F8B02533D0D2083C
:101B80000A60D4F8B01501F002011970D4F8B41548
:101B900001F00F013970D4F8B8152970D4F8B815D0
:101BA000090A6970D4F8B815090CA970D4F8B815E9
:101BB000090EE970D4F8BC152971D4F8BC15090ACE
:101BC0006971D4F8BC15090CA971D4F8BC15090EBB
:101BD000E97150B1012805D14C481030016841F03D
:101BE0002001016079E7520DCAE748480C30F5E75B
:101BF000F0B549A088B0D0E90010CDE90210484DF9
:101C000007A8CDE9000506AB05AA04A90020FFF747
:101C1000A8FF444A107858B10498A0F58071213982
:101C200004D14148296801606968416008B054E7FF
:101C30003E4B002002A92E5C0F5CBE4202D1641C08
:101C4000E4B200E00024401CC0B21C600828F2D3BB
:101C5000082CEBD336490020087036490870364905
:101C60000870364908703649087001201070DDE7A9
:101C700038B500240B4600902246214640F2016010
:101C8000FFF7DEFE054640F6FF7301E0641CA4B2D8
:101C90002846FFF728FF072801D09C42F6D39C4234
:101CA00001D3012038BD002038BD00B5014686B003
:101CB0000020FFF748FF002816D002A8CDE9000158
:101CC00005AB04AA03A90020FFF74BFF03981228D5
:101CD00005D19DF8100010B99DF8140010B1002036
:101CE0008DF808009DF8080006B000BD38B5002446
:101CF0000B4600902246214640F20170FFF7A0FEFD
:101D0000054640F6FF731FE00014014000640040E8
:101D100000660040006000400A0C0F13181E2501E9
:101D2000480100201B00002054000020D0000020AB
:101D30005C0000201E0000201F0000201C0000206E
:101D40001D000020641CA4B22846FFF7CCFE072823
:101D500001D09C42F6D39C4201D3012038BD002023
:101D600038BD38B500240091082322462146FFF7EC
:101D700067FE054640F6FF7301E0641CA4B22846E6
:101D8000FFF7B1FE072801D09C42F6D39C4201D355
:101D9000012038BD002038BD10B5012188B00846AB
:101DA00003F080FA01210C2003F073FA01210846A8
:101DB00003F06FFA0121B64803F0B8F80121B548E5
:101DC00003F0B4F84FF40040ADF80C0004248DF893
:101DD0000F4003A9B04803F01EF80820ADF80C002E
:101DE0008DF80F4003A9AD4803F015F8684603F0DD
:101DF000BBFD00204FF6FF71ADF80410ADF80000F8
:101E0000ADF80600ADF8020024076946204603F04D
:101E100027FB00231A460321204603F046FE04A8B0
:101E200003F0B5FD0A21ADF8181004A9204603F00F
:101E3000CFFC0121204603F0E1FF0122114620469C
:101E400003F0CBFD0021204603F0AFFF0121204627
:101E500003F0AEFD08B010BD10B588B0012102201E
:101E600003F020FA0121042003F013FA01210846AF
:101E700003F00FFAC020ADF8180004208DF81B0005
:101E800006A9854802F0C7FF684603F06DFD0020F3
:101E90004FF6FF71ADF80410ADF80000804CADF8BE
:101EA0000600ADF802006946204603F0D9FA002387
:101EB0001A460321204603F0F8FD03A803F067FD4E
:101EC0000A21ADF8141003A9204603F081FC01217A
:101ED000204603F093FF01221146204603F07DFDCA
:101EE0000021204603F061FF0121204603F060FD40
:101EF000B0E710B588B00121042003F0D3F9012127
:101F0000082003F0C6F9C020ADF8180004208DF8B1
:101F10001B0006A9614802F07EFF684603F024FD1D
:101F200000204FF6FF71ADF80410ADF800005D4CD5
:101F3000ADF80600ADF802006946204603F090FABD
:101F400000231A460321204603F0AFFD03A803F047
:101F50001EFD0A21ADF8141003A9204603F038FC39
:101F60000121204603F04AFF01221146204603F0DA
:101F700034FD0021204603F018FF0121204603F024
:101F800017FD67E710B588B00121082003F08AF932
:101F90000121042003F07DF90320ADF8180004208E
:101FA0008DF81B0006A93C4802F035FF684603F097
:101FB000DBFC00204FF6FF71ADF80410ADF8000017
:101FC000394CADF80600ADF802006946204603F032
:101FD00047FA00231A460321204603F066FD03A8B2
:101FE00003F0D5FC0A21ADF8141003A9204603F034
:101FF000EFFB0121204603F001FF0122114620469C
:1020000003F0EBFC0021204603F0CFFE0121204627
:1020100003F0CEFC1EE70021022807D003280BD0D6
:1020200004280CD005280DD0002070474FF08042C6
:10203000B2F9240091847047194A243204E0194A05
:10204000243201E0184A2432B2F9000011807047AE
:102050004FF08040018A018A21F00101018270471E
:102060000F4810300188018821F00101018070477C
:102070000C4810300188018821F00101018070476F
:10208000094810300188018821F001010180704762
:10209000000230000001180000080140000C01405F
:1020A0000004004000080040000C004008B5012179
:1020B000602003F0EEF84FF48070ADF80000482087
:1020C0008DF8030069461A4802F0A5FE08BD08B560
:1020D0000121402003F0DDF80120ADF80000482088
:1020E0008DF803006946134802F095FE08BD1248BA
:1020F0001249027812B1D1F8202122B1D1F8201171
:10210000012904D005E00021017001207047012160
:1021100001700020704700B5FFF7E9FF012804D1E6
:102120000749087810B10020087000BD0120FBE7C6
:10213000001401400018014050010020008022429C
:102140003501002038B50121402003F0A2F84FF4FA
:102150008064ADF8004010208DF8030003201C4D72
:102160008DF802006946284602F055FE21462846B1
:1021700002F0BBFE38BD38B50121082003F089F814
:102180004FF48064ADF8004010208DF80300032068
:10219000104D8DF802006946284602F03CFE2146AB
:1021A000284602F0A4FE38BD10B50B4B002460B1E8
:1021B0000A4A1168491C1160814205D1D3F8A8016F
:1021C000C043C3F8A801146010BDC3F8A84110BDF6
:1021D00000180140000C014000002342540100207F
:1021E0002DE9F84F01215C2003F053F80820ADF8E9
:1021F000000010248DF8034003258DF80250694635
:10220000824802F008FE0420ADF800008DF803407B
:102210008DF8025069467D4802F0FDFDADF80040A2
:102220008DF803408DF802506946784802F0F3FDBE
:102230002026ADF800608DF803408DF80250694605
:10224000724802F0E8FD4FF48058ADF80080DFF8E6
:10225000C0B18DF803408DF802506946584602F02F
:10226000DAFDADF80060DFF8AC918DF803408DF831
:1022700002506946484602F0CEFDE701ADF8007015
:10228000DFF894A18DF803408DF80250694650465E
:1022900002F0C1FDE602ADF800608DF803408DF854
:1022A00002506946504602F0B6FD0821574802F038
:1022B0001EFE0421554802F01AFE1021534802F078
:1022C00016FE2021514802F012FE4146584602F007
:1022D0000EFE2021484602F00AFE3946504602F022
:1022E00006FE3146504602F002FEBDE8F88F2DE9A9
:1022F000F0410D460446012188B0480302F0C9FFB1
:102300000121102002F0C5FF4FF47072ADF81C20BF
:1023100018228DF81F2003208DF81E0007A93D48C4
:1023200002F079FDADF81440ADF81050DFF8EC8004
:1023300001250024ADF81650ADF8124004A940461E
:1023400003F08EF86026ADF800606F02ADF8025021
:10235000ADF80640ADF80840ADF80E70694640464D
:1023600003F0B7F80821404603F000FCADF8006028
:10237000ADF80250ADF80640ADF80840ADF80E706B
:102380006946404603F0DAF80821404603F0FEFBB8
:10239000ADF80060ADF80250ADF80640ADF8084069
:1023A000ADF80E706946404603F004F90821404636
:1023B00003F0F6FBADF80060ADF80250ADF8064052
:1023C000ADF80840ADF80E706946404603F02CF9B0
:1023D0000821404603F0EAFB0121404603F09EFB42
:1023E0000121404603F0E4FA0121404603F0EAFAF5
:1023F00008B0BDE8F08170B50C460546FFF7F0FE69
:1024000021462846BDE8704071E700000008014001
:102410000018014000100140000C01400034014050
:10242000F8B50121082002F034FF4FF48070ADF8B8
:10243000000010248A4E8DF8034003258DF80250C9
:102440006946304602F0E7FC6001ADF800008DF807
:1024500003408DF802506946304602F0DCFC290248
:10246000304602F042FDF8BD70B57D48001D0168A0
:1024700021F0F0010160016841F030010160794C08
:102480000120C4F8A401C4F8A001042004F5D0740C
:1024900001F0EAFD00256560042001F0E5FD2560FE
:1024A00070BD6F4810B5001D016821F0F00101609A
:1024B000016841F0300101606A4C0020C4F8A001BD
:1024C000C4F8A401042004F5D07401F0CDFD01206E
:1024D00020606060BDE81040042001F0C5BD70B50B
:1024E0005F480024001D016821F0F00101600168CF
:1024F00041F0800101605B4D0126C5F8A4613046C2
:1025000001F0B2FDC5F8A061012001F0ADFD07E0CA
:10251000641CE4B2FA2C03D9FFF7C3FF012070BD9D
:10252000D5F824010028F3D1C5F8A00170BD70B51D
:102530004C4C0025C4F8A0514948001D016821F009
:10254000F0010160016841F030010160C4F8A4515C
:10255000022004F5D07401F087FD012020600220E4
:1025600001F082FD256070BD70B53E4C0026C4F8B8
:10257000A0613B48001D016821F0F0010160016885
:1025800041F0300101600125C4F8A451022004F596
:10259000D07401F069FD2560022001F065FD266020
:1025A00070BD2DE9F04105462D48001D016821F060
:1025B000F0010160016841F030010160294E0027FF
:1025C000C6F8A0713C464FF00108E809C6F8A4011E
:1025D0006806050E022001F047FDC6F8A081022022
:1025E00001F042FDC6F8A071022001F03DFD641C1F
:1025F000E4B2082CE9D3BDE8F0812DE9F04781462B
:1026000017480024001D016821F0F00101600168F5
:1026100041F080010160134E254627464FF0010826
:10262000C6F8A071022001F01FFDC6F8A081600667
:10263000040ED6F8240108B1641CE4B2012001F0B4
:1026400013FD6D1CEDB2082DEAD3B9F1000F04D0D3
:10265000FFF76DFF2046BDE8F087FFF785FFF9E73C
:10266000000C01400080214230B50023DD4A0124E6
:1026700011B1C2F8A04101E0C2F8A0310021C2F8B6
:102680009431050602D5C2F8984101E0C2F89831AC
:10269000C2F894414006491C000EC9B20829EED385
:1026A000C2F8A04130BD70B5CF4E002505F1B00095
:1026B000C0B20021FFF7D8FF00210846FFF7D4FF82
:1026C00000211020FFF7D0FF002406EBC4000121F9
:1026D000405DFFF7C9FF641CE4B2802CF5D36D1C8C
:1026E000EDB2082DE2D370BD00B500218D20FFF7BB
:1026F000BBFF00211420FFF7B7FF0021AF205DF8DA
:1027000004EBB1E700B500218D20FFF7ADFF0021FC
:102710001020FFF7A9FF0021AE205DF804EBA3E72E
:1027200010B40021B04B0A46002003EBC004401C4B
:10273000C0B262548028F8D3491CC9B20829F3D327
:1027400010BCB0E710B57F2816D83F2914D807234E
:10275000A3EBD10301F00701C1F107040121A1405E
:10276000A14CDBB204EBC000002AC25CC9B201D0AC
:102770000A4300E08A43C25410BD2DE9F04F203ACD
:102780009C460D468246884602F0FF090026DDF889
:1027900024B02FE0BCF10C0F08D0944901EB0910D4
:1027A0000027845D200607D55A4609E0904909EBC9
:1027B000490001EB8000F3E7BBF1000F12D00022CB
:1027C00029465046FFF7BEFF60066D1C040EEDB2B1
:1027D000A5EB0800604507D10AF10100454600F06D
:1027E000FF0A05E00122EBE77F1CFFB2082FD9D3D7
:1027F000761CF6B26645CDD3BDE8F08F03460120C6
:1028000000E05843491EC9B2FBD270472DE9FF4F83
:1028100081B00027DDF838B01D46924680463C4620
:102820004FF001094FEA5B0627E0281B401EC1B2AA
:102830000A20FFF7E3FFBAFBF0F00A21B0FBF1F248
:1028400001FB120027B9691E8C4201DA48B1012749
:102850003030C2B206FB0480C0B25B46CDF80090B7
:1028600006E006FB0480C0B25B462022CDF8009053
:102870000299FFF782FF641CE4B2AC42D5D305B0E5
:10288000BAE7F8B516460D460446012714E07A2C3F
:1028900002D900241035EDB23A2D03D90024254683
:1028A000FFF73EFF009732780C2329462046FFF7BA
:1028B00064FF0834E4B2761C30780028E7D1F8BD14
:1028C00038B50121402002F0E4FC4FF4F070ADF87F
:1028D000000010208DF8030002208DF802006946E8
:1028E000444802F098FA012002F07CFB002002F03C
:1028F0006BFC002001F074FE002002F073FB394CE9
:102900000020C4F89C01642004F5CE7401F0C4FBDF
:10291000012020600021AE20FFF7A6FE0021D52077
:10292000FFF7A2FE00215020FFF79EFE0021A82005
:10293000FFF79AFE00213F20FFF796FE0021D320EB
:10294000FFF792FE00210846FFF78EFE002140208F
:10295000FFF78AFE00218D20FFF786FE002114205C
:10296000FFF782FE00212020FFF77EFE00210220DB
:10297000FFF77AFE0021A120FFF776FE0021C0209C
:10298000FFF772FE0021DA20FFF76EFE0021122011
:10299000FFF76AFE00218120FFF766FE0021EF208D
:1029A000FFF762FE0021D920FFF75EFE0021F12033
:1029B000FFF75AFE0021DB20FFF756FE00213020F2
:1029C000FFF752FE0021A420FFF74EFE0021A620B3
:1029D000FFF74AFE0021AF20FFF746FEFFF7A0FEFB
:1029E00038BD00000000234234030020A6990108EE
:1029F00032950108001801402DE9F0410D460446CA
:102A0000012188B0084602F044FC0121C80202F00E
:102A100040FC0121402002F03CFC0121F94802F079
:102A200085FA4FF4D442ADF81C2018228DF81F20EF
:102A300003208DF81E0007A9F34802F0ECF9ADF869
:102A40001440ADF81050DFF8C48301250024ADF820
:102A50001650ADF8124004A9404602F001FD602670
:102A6000ADF800606F02ADF80250ADF80640ADF869
:102A70000840ADF80E706946404602F02AFD082174
:102A8000404603F073F8ADF80060ADF80250ADF8C1
:102A90000640ADF80840ADF80E706946404602F0B9
:102AA0004DFD0821404603F071F8ADF80060ADF827
:102AB0000250ADF80640ADF80840ADF80E7069461A
:102AC000404602F077FD0821404603F069F8ADF872
:102AD0000060ADF80250ADF80640ADF80840ADF822
:102AE0000E706946404602F09FFD0821404603F003
:102AF0005DF80121404603F011F80121404602F043
:102B000057FF0121404602F05DFF08B0BDE8F081AB
:102B1000F0B50E460546012189B0084602F0B9FB22
:102B20000121C80202F0B5FB0121402002F0B1FBF7
:102B30000121B44802F0FAF94FF4D444ADF81C4036
:102B40002821B14F8DF81F1007A9384602F063F90C
:102B50002146384602F0CBF9ADF810600024AB4EA8
:102B6000ADF81450ADF81640ADF8124004A9304647
:102B700002F076FC01250F20ADF80040ADF80450BE
:102B8000ADF80800ADF80240ADF8064069463046A1
:102B900002F01EFE0420ADF80000ADF80450ADF8C0
:102BA0000240ADF80640ADF808406946304602F0F4
:102BB0000FFE0C20ADF80000ADF80450ADF8024057
:102BC000ADF80640ADF808406946304602F000FE18
:102BD00019208DF80C008DF80D408DF80E408DF801
:102BE0000F5003A801F005FB1B208DF80C008DF899
:102BF0000D408DF80E408DF80F5003A801F0F9FA42
:102C000001221621304602F0E8FE0121304602F092
:102C1000D9FE0121304602F0CBFE09B0F0BD2DE90E
:102C2000F0477B4901250024087968B1794802788A
:102C300052B9794A1470794A147005707848047052
:102C400078480470784804700878704E8946000609
:102C50004FF6FF774FF4FA7831D40221304603F073
:102C6000D0F860B30221304603F0D7F899F800009D
:102C7000400639D599F8040008B989F8045030465F
:102C800003F0A8F8A9F80800B9F806104A468842E7
:102C900001D2976300E09463401A916B08449061FD
:102CA000916A401A00D54042404500DD916190692B
:102CB000906289F800400021304602F0C1FF99F887
:102CC0000100000640D40421304603F09AF8D8B33E
:102CD0000421304603F0A1F899F80100400648D5D8
:102CE00099F8040070B10FE0304603F073F8014624
:102CF000A9F8061099F8001041F0400189F8001079
:102D00000221D9E789F80450304603F065F8A9F8A4
:102D10000C00B9F80A104A46884201D2D76300E095
:102D2000D463401AD16B0844D061D16A401A00D5EF
:102D30004042404500DDD161D069D06289F8014050
:102D40000021304602F088FF99F80200000640D4C6
:102D50000821304603F055F8D8B30821304603F077
:102D60005CF899F80200400660D599F8040070B14B
:102D70000FE0304603F030F80146A9F80A1099F840
:102D8000011041F0400189F801100221D9E789F8CA
:102D90000450304603F022F8A9F81000B9F80E10DC
:102DA0004A46884201D2176400E01464401A116C4C
:102DB00008441062116B401A00D54042404500DDC6
:102DC0001162106A106389F802400021304602F057
:102DD00057FF99F80300CA46000661D41021304617
:102DE00003F00FF800285BD01021B146304603F005
:102DF00014F89AF803005646400645D5307918B3C2
:102E000023E013E0C000160000180140002C014030
:102E1000580100201F0000205C0000201E00002040
:102E20001C0000201D0000201B000020304602F086
:102E3000D5FF0146A9F80E1099F8021041F04001A3
:102E400089F802100221C1E735714D46484602F06B
:102E5000C7FFB082718A884201D2776400E074644F
:102E6000401A716C08447062716B401A00D5404280
:102E7000404500DD7162706A7063F470002128467D
:102E8000BDE8F04702F010BF4C46484602F0A8FFEC
:102E90007082F078022140F04000F0702046EFE7A9
:102EA000BDE8F0870248018821F0010101807047E8
:102EB000102C0140FC49085C70472DE9F84F0125B2
:102EC0008046ADF80050F84800264670ADF8005036
:102ED000F64FF74CDFF8DCB381464FF6FF7A25E07A
:102EE000BDF8000010EA080F02D0C7F88C5101E0CD
:102EF000C7F88C61C4F8B051052001F0B5F8C4F8EA
:102F0000B061052001F0B0F8C4F8B051DBF83C0125
:102F100030B199F80110BDF80020114389F8011073
:102F2000BDF800100AEA4100ADF80000BDF800004D
:102F3000FF28D5D9BDE8F84F102001F095B82DE94C
:102F4000FC4700268DF800600125ADF80450D84CF0
:102F5000C4F8B461D84F3878FFF7AFFF7878FFF73F
:102F6000ACFF02208DF80000DFF84883CE4F4FF60B
:102F7000FF792CE0ADF804501DE0C4F8B0510520F5
:102F800001F072F8C4F8B061052001F06DF8C4F8E2
:102F9000B051D8F83C0140B19DF80000BDF80410D4
:102FA000385C08439DF800107854BDF8041009EA15
:102FB0004100ADF80400BDF80400FF28DDD9102061
:102FC00001F052F89DF80000401C8DF800009DF8BB
:102FD00000000928CED3C4F8B451BDE8FC87002016
:102FE000B14A01461154401CC0B20928FAD37047B7
:102FF00070B5FFF7F4FFFFF7A2FFAB48AE4AB0F899
:103000000340AD48401F521D04810020012512F8E5
:10301000103000F101005B1E05FA03F12142C0B23D
:1030200002D01028F3D3002070BD10B5FFF7E0FFE9
:10303000A1499D4A491F04280871D3790B70137A5E
:103040004B7053798B709279CA700FD19B49087875
:1030500000280BD19A4A107001220A709949087011
:1030600099490870994908709949087010BD08B5C8
:10307000142501F045F8DFF840A2DFF84092954EA4
:10308000DFF854B2AAF1050A0090322168460AF02E
:1030900075F8FFF7CAFF9AF804005146042802D1D8
:1030A00099F80020DAB399F800000128EDD188786A
:1030B0009AF8014069428038803C884202DDA8428B
:1030C00000DA00208C4202DDAC4200DA00248349A1
:1030D000D1F800801E2100FB08F090FBF1F015F004
:1030E0007DFE07463060604200FB08F0962190FBB1
:1030F000F1F015F073FE5C46CBF8000010F1FF4FC5
:1031000002D387F000413160754F394615F068FDF4
:1031100020603946306815F063FD3060B5E7FFE7A1
:10312000012289F80020664A00201070654A10705C
:10313000BDE738B50121682002F0ABF80820ADF8F2
:10314000000010258DF8035003248DF802406946D5
:10315000644801F060FEE802ADF8000028208DF818
:1031600003006946604801F056FE2003ADF80000F8
:103170008DF803508DF8024069465C4801F04BFE23
:1031800038BD70B54A4D0020C5F8B4014A4C05F56C
:10319000DA752078FFF791FE6078FFF78EFE012048
:1031A000286041484078732801D0012070BD00207C
:1031B00070BD70B53E4C054600200E46C4F8B40103
:1031C000102004F5DA7400F04FFF0120FFF775FEC0
:1031D0004220FFF772FE0020FFF76FFE2846FFF740
:1031E0006CFE3046FFF769FE0020FFF766FE002008
:1031F000FFF763FE0020FFF760FE0020FFF75DFE93
:1032000001202060BDE87040102000F02DBF10B5F7
:10321000274C0020C4F8B401102004F5DA7400F043
:1032200023FF0120FFF749FE4220FFF746FE002062
:10323000FFF743FE0020FFF740FE0020FFF73DFEB2
:1032400001202060BDE81040102000F00DBF10B537
:10325000174C0020C4F8B401102004F5DA7400F013
:1032600003FF0120FFF729FE4320FFF726FE002081
:10327000FFF723FE0120FFF720FE0020FFF71DFED1
:103280000020FFF71AFE0020FFF717FE0020FFF7CF
:1032900014FE0020FFF711FE01202060BDE8104061
:1032A000102000F0E1BE0000340700200080224220
:1032B0000080214200002342A50100201E000020C2
:1032C0005C0000201F0000201C0000201D000020CA
:1032D0001B000020340000202C00002038010020BA
:1032E0000000C8420014014000180140000C0140D9
:1032F00010B54A4C0020C4F8B401012004F5DA747A
:10330000FFF7DBFD4420FFF7D8FD0020FFF7D5FDD8
:103310000120FFF7D2FD0320FFF7CFFD0020FFF7CC
:10332000CCFD0020FFF7C9FD0020FFF7C6FD0020FF
:10333000FFF7C3FD01202060BDE81040102000F021
:1033400093BE10B5354C0020C4F8B401102004F52C
:10335000DA7400F089FE0120FFF7AFFD4D20FFF782
:10336000ACFD0020FFF7A9FD0020FFF7A6FD01201E
:10337000FFF7A3FD01202060BDE81040102000F001
:1033800073BE10B5254C0020C4F8B401102004F51C
:10339000DA7400F069FE0120FFF78FFD4320FFF78C
:1033A0008CFD0020FFF789FD0020FFF786FD5A20E5
:1033B000FFF783FD5A20FFF780FD5A20FFF77DFDC0
:1033C0005A20FFF77AFD5A20FFF777FD0120206091
:1033D000BDE81040102000F047BE10B5FFF717FF02
:1033E000FFF715FFFFF713FFFFF731FFFFF780FF30
:1033F000BDE81040C5E710B509480A4C007840B157
:103400000948C1792170017A61704179A170807990
:10341000E070FFF7EDFD207110BD0000008021423B
:103420001E000020A001002034070020FE490A8869
:103430005206FCD5FC49091D08807047FB490880ED
:10344000081F01884906FCD5704730B505460121A3
:1034500087B0084601F01DFF0121202001F019FF6F
:103460000121480401F01EFF0121082001F05EFD4A
:103470002020ADF8100003208DF812001820EC4C2D
:103480008DF8130004A9204601F0C5FC4020ADF8DA
:10349000100048208DF8130004A9204601F0BBFC61
:1034A00026208DF8140001218DF8151000248DF8C8
:1034B00016408DF8171005A800F09BFEADF80440EB
:1034C000ADF80640ADF80840ADF80C40D74C0C20E4
:1034D000ADF80A00241F00956946204602F0D0FC92
:1034E000012240F22551204602F047FD01212046ED
:1034F00002F039FD07B030BD2DE9F047CB4840F26E
:103500002551001F02F0F0FD002871D0C748068841
:10351000C848C94AC94BCA4901270025412E06D0CF
:103520004B2E22D0492E22D04A2E20D018E0C54C56
:1035300094F800C0BCF1000F12D1DFF80CC340F2C8
:103540004C48DCF800C0C4450ADB2770BF4C25702E
:10355000BF4C2570BF4C2570BF4C2570BF4C2570EB
:10356000097829B101290BD01BE00F700CE00D7018
:10357000A6F1410107291AD9082E11DC067010E0C6
:10358000432E08D0472E09D015701D70412E0ED045
:10359000452E0CD004E015701F7001E017701D70EF
:1035A0000570AF48582E06D0592E07D009E0A6F175
:1035B00040010170F5E70168323101E001683239FC
:1035C000016082460446006815F008FCA54AA64939
:1035D000FEF75DF815F0C6FB2060A449A44C7B2ED5
:1035E00007D07D2E0BD02078012803D0022808D0E8
:1035F0005BE0277060780E54401C607055E002203C
:103600002070C878502806D04878232845D06078A4
:10361000A070894629E0974807703EE06178081A53
:1036200014F0C7FE02460B460020934913F0D6FD66
:103630000646A0780F468046484410F8010C303802
:1036400014F0B7FE32463B4614F01AFF06460F460A
:10365000A06815F025FA32463B4614F02BFC14F016
:10366000F7FBA060A8F10100A070C0B20428D5D279
:1036700099F80100303803280FD2DFE800F0020883
:103680000B00A06815F06EFBCAF8000005E07B494E
:10369000A06801E07A49A068086025706570A5708F
:1036A00032217248A56010F0B2FB0020BDE8F0871F
:1036B00074490880081F01884906FCD5704770B519
:1036C0000546012186B0084601F0E3FD01211020E6
:1036D00001F0DFFD0121880401F0E4FD01216A48C9
:1036E00001F024FC4FF48060ADF8100003248DF845
:1036F00012401820654E8DF8130004A9304601F0E1
:103700008AFBF014ADF8100048208DF8130004A9CE
:10371000304601F080FB27208DF8140001218DF840
:1037200015108DF816408DF8171005A800F061FDF2
:103730000020ADF80400ADF80600ADF80800ADF8C3
:103740000C00504C0C20ADF80A00241F009569466F
:10375000204602F095FB012240F22551204602F05E
:103760000CFC0121204602F0FEFB06B070BD30B516
:1037700003460020012909D13C4C0022323403E0E9
:10378000A55C6840521CD2B29A42F9D3002908D1F4
:10379000364A643203E0545C6040491CC9B2994225
:1037A000F9D330BD70B5374C40F22551241F204667
:1037B00002F09AFCB0B3204602F02FFCC2B22248BD
:1037C00040F24C41006888426ADB294C0020012607
:1037D000217969B120490B7853B91A4B18701B4BEA
:1037E00018701B4B18701B4B18700E701B4908701B
:1037F0001E4DE17864357B2A6A5400D091B1491C92
:10380000C9B2E1700B294BD1E070A87A7D2847D16D
:1038100000210920FFF7ABFF697A884240D1207967
:1038200008B935E03CE034E0003801400444004091
:1038300000140140340100203C0100203D01002023
:103840003E0100205C000020EC0100201E00002052
:103850001F0000201C0000201D0000201B00002075
:1038600038010020000048430000A041400700202C
:10387000CC0100203F0100200000244084000020F3
:10388000880000200448004010001400001001408F
:1038900026719C499A4851F8652F02604968416039
:1038A000002070BD70B5984C40F22551204602F0C2
:1038B0001BFCE8B3204602F0B0FBC2B2934840F2D2
:1038C0004C410068884235DB914C00200126A179EB
:1038D00069B190490B7853B98F4B18708F4B1870A2
:1038E0008F4B18700E708F4908708F490870854D86
:1038F000617964357B2A6A5400D0C9B1491CC9B2C8
:1039000061710B2916D16071A87A7D2812D100212E
:103910000920FFF72CFF697A88420BD1A07900B902
:10392000A6717849764851F8652F0260496800E031
:1039300000E04160002070BD1CB57549C879401C8D
:10394000C0B2C871032801D30020C871C0B20321DE
:10395000B0FBF1F201FB12036A4AA3B1B0FBF1F331
:1039600001FB1303012B17D0B0FBF1F301FB130094
:1039700002281BD152F8420F00905068019069460E
:103980004FF4817010E052F8320F009050680190AF
:1039900069464FF4807007E052F83A0F0090506883
:1039A0000190694640F20110FEF7DBF91CBD10B52D
:1039B000544C00233234E05CFFF77AFEE05CFFF702
:1039C00035FD5B1CDBB2182BF5D3BDE81040B3E727
:1039D0002DE9F84F4B4C7B20323420767D2084F843
:1039E0002E005248076852480568781900EBD070DD
:1039F000401015F0F3F94F490968884615F0F0F8C2
:103A00004D4915F07BFA15F0ADF9064660830020AC
:103A1000A083E81B15F0E2F9414615F0E1F84749AB
:103A200015F0DEF8444915F069FA15F09BF90546E2
:103A3000E083434840490088608400904148008802
:103A40004042A084804640480088E08483463F4846
:103A50000088208582463E48008847423D48678569
:103A60000088A08581463C48006815F047FA15F0AB
:103A700079F9014620847B202070384800786070F6
:103A8000300AA070E670002020716071280AA071D1
:103A9000E5710098000A2072009860724FEA1820C1
:103AA000A07284F80B804FEA1B20207384F80DB0BD
:103AB0004FEA1A20A07384F80FA0380A20746774A4
:103AC0004FEA1920A07484F81390080A20756175D4
:103AD00001211620FFF74BFEA07594F82E00E0752B
:103AE000BDE8F88F08B500F00BFB00903221684666
:103AF00009F044FBFFF76CFFFFF759FFF6E7000002
:103B0000540000204007002000380140EC01002054
:103B1000CC0100201C0000205C0000201E000020C2
:103B20001F0000201D0000201B000020700000204E
:103B300074000020DC00002000007A4452B81E3ED1
:103B4000DE010020E0010020E2010020D801002079
:103B5000DA010020DC0100204401002035010020B2
:103B600003788B54114443784B7082788A70C07804
:103B7000C870704703B50A2912D8002910D00B2944
:103B80000ED2DFE801F00D06080E10121416181AF6
:103B90001C00012200E0052229496846FFF7E0FFEA
:103BA0000CBD0922F8E70D22F6E71122F4E71522F1
:103BB000F2E71922F0E71D22EEE72122ECE72522A9
:103BC000EAE70A2839D890B31D4924220B280A7045
:103BD00033D2DFE800F032060A0E12161A1E222730
:103BE0002D000520487106207047092048720A20E0
:103BF00070470D2048730E20704711204874122022
:103C000070471520487516207047192048761A20ED
:103C100070471D2048771E207047212081F8210021
:103C200022207047252081F825002620704704E0D7
:103C3000292081F829002A20F8E70020F6E7000073
:103C4000C407002070B515460E460446FEF70CFC6E
:103C50006006000EFEF7A5FCFEF741FC50B93046A9
:103C6000FEF79FFCFEF73BFC2846FEF79AFCFEF7AA
:103C700036FC18B1FEF715FC012070BDFEF711FCF3
:103C8000002070BD2DE9F0411C4615460F46064642
:103C9000FEF7EAFB7006000EFEF783FCFEF71FFC42
:103CA00020B1FEF7FEFB0120BDE8F0813846FEF7AB
:103CB00078FCFEF714FCFEF7D7FB012000EB460072
:103CC000C0B2FEF76EFCFEF70AFC08E0012D0CD036
:103CD0000120FEF792FC6D1E04F8010BEDB2002DE1
:103CE000F4D1FEF7DEFB0020DEE70020F1E72DE94E
:103CF000FC4115460E4607466B46062203210C2062
:103D0000FFF7C0FF040008D1BDF800003880BDF8FF
:103D100002003080BDF80400288011220A210C2006
:103D2000FFF790FF2046BDE8FC817CB514460D46A8
:103D300006466B46062243216820FFF7A3FF0028B2
:103D40000BD1BDF8021049BA3180BDF8001049BA54
:103D50002980BDF8041049BA21807CBD7CB5144689
:103D60000D4606466B4606223B216820FFF78AFF78
:103D700000280BD1BDF8001049BA3180BDF80210FF
:103D800049BA2980BDF8041049BA21807CBDA14AF6
:103D900010B5111F081F06F0C5F958B19E49D1F89A
:103DA000A801E8B30020C1F8A801BDE81040C82070
:103DB00000F072B9974C40F24C40203C616981425E
:103DC00011DA04F10A02911E881EFFF7C7FF221DB7
:103DD000911E881EFFF7A9FF04F11002911EBDE895
:103DE0001040881E83E78B4A6061163A911E881E38
:103DF000FFF7B4FF874A1C3A911E881EFFF795FF14
:103E0000844A103A911E881EFFF771FF814822886C
:103E1000001D0188511A218041886288511A00E0F2
:103E200005E061808088A188081AA08010BD01206B
:103E3000B9E770B50D460446FEF716FB6006000EA6
:103E4000FEF7AFFBFEF74BFB2846FEF7AAFBFEF79B
:103E500046FBFEF709FB012000EB4400C0B2FEF771
:103E6000A0FBFEF73CFB0020FEF7C7FB0446FEF775
:103E700018FB204670BDBC2801D3012210E0622847
:103E800001D302220CE02A2801D3032208E01428DF
:103E900001D3042204E00A2801D3052200E006220F
:103EA0001A216820CEE610B504464FF47A70844299
:103EB00001D9044602E0042C00D20424B0FBF4F043
:103EC000401EC2B219216820FFF7BCFE6008BDE8A1
:103ED0001040D0E7C006020E1C216820B2E6C006E2
:103EE000020E1B216820ADE610B5FEF799FA80227C
:103EF0006B216820FFF7A6FE642000F0CDF80022B9
:103F00006B216820FFF79EFE0120FFF7E8FF0020ED
:103F1000FFF7E0FF3220FFF7C6FF002238216820BC
:103F2000FFF790FE00226A216820FFF78BFE002237
:103F300023216820FFF786FE822237216820FFF7C1
:103F400081FE75216820FFF774FF712812D10122CC
:103F50006B216820FFF776FE00226C216820FFF7B6
:103F600071FE3220FFF79FFF00210C20FFF761FF59
:103F7000482801D0012010BD11220A210C20FFF792
:103F800061FE002010BD08B56B4602224121682069
:103F9000FFF778FEBDF8000040BA00B214F009FA4D
:103FA0001E4A1F4B14F042F800221E4B13F082FFF2
:103FB00013F04EFF1C4914F0A1FF14F0D3FE00B221
:103FC00008BD2DE9F0411D4616460C460746FEF792
:103FD0004BFA7806000EFEF7E4FAFEF780FA60B9B5
:103FE0002046FEF7DEFAFEF77AFA00240BE0285DA1
:103FF000FEF7D7FAFEF773FA18B1FEF752FA01206E
:1040000052E6641CE4B2B442F1D3FEF74AFA00204F
:104010004AE60000F80100200000234252B81E8545
:10402000EBDD7440000035400000C84210B50420AC
:1040300000F01FF938483949394A0068B0FBF1F3FC
:10404000B0FBF1F14FF47A704143137001205080BE
:104050004FF0E020026942F0020202614161016911
:1040600041F00101016110BD70B54FF0E025002164
:104070006C692B4AAB6912785043AA699A42FCD00A
:1040800002D2A3EB020302E0A4EB0206334419447C
:1040900013468142F1D370BD70B5044609F0F0FCBF
:1040A00001280CD01E4D6888844203D3B4FBF0F085
:1040B00009F0BEF86888B4FBF0F100FB11444FF43E
:1040C0007A706043BDE87040CEE770B505460024C5
:1040D0004FF47A7603E03046FFF7C6FF641CAC422B
:1040E000F9D370BD10B509F0CBFC012803D0BDE8B1
:1040F00010400AF048BB0A484168491C416010BDA5
:1041000010B509F0BDFC012803D0BDE8104009F04E
:10411000C0BA0348406810BD0400002040420F00B0
:104120000402002070472D490A885206FCD52B4A0C
:10413000C1B2121D1180704730B50446012187B00D
:10414000084601F0A6F8012144F2040001F0A1F8AC
:104150004FF40070ADF8100003208DF81200182005
:104160001F4D8DF8130004A9284600F054FE2815B1
:10417000ADF8100048208DF8130004A9284600F07F
:104180004AFE25208DF8140001218DF81510022219
:104190008DF816208DF8171005A800F02AF80020D9
:1041A000ADF804000094ADF80600ADF80800ADF8D5
:1041B0000C000C200B4CADF80A006946204601F0BB
:1041C0005FFE012240F22551204601F0D6FE01217A
:1041D000204601F0C8FE07B030BD0000004400409A
:1041E0000008014000380140284908432849086078
:1041F000704730B50F23C27801780125F2B1244A07
:10420000126801F1E02102F4E062C2F5E062120AF4
:10421000C2F10404D3404278A24084781C40144385
:10422000220181F80024007800F01F018D40400930
:10423000800000F1E020C0F8005130BD01F01F0007
:1042400085404809800000F1E020C0F8805130BD71
:10425000104A114001430E48001F016070470C4A8C
:10426000121D0029116801D0014300E08143116053
:1042700070474FF0E0210428086903D020F00400C3
:104280000861704740F00400FAE700000000FA05FA
:104290000CED00E080FFFF1FC54910B5884202D138
:1042A000012144150AE0C349884202D101210415C5
:1042B00004E0C14988420AD10121CC03204600F024
:1042C000FAFF2046BDE81040002100F0F4BF10BD09
:1042D00010B54268B94B0C791A400B6842EA0422C7
:1042E000134343608268B64B1A40D1E9024323432B
:1042F0004C7942EA440213438360C26A097C22F487
:104300007002491EC9B242EA0151C16210BD0021CA
:104310000160017141718160C160012101747047C8
:104320000029816802D041F0010101E021F0010182
:10433000816070470029816802D041F4807101E0FA
:1043400021F4807181607047002A4268C9B201D0AF
:104350000A4300E08A4342607047816841F00801E7
:1043600081607047014600208968090700D5012057
:104370007047816841F00401816070470146002068
:104380008968490700D5012070470029816802D05B
:1043900041F4A00101E021F4A001816070470146D1
:1043A00000208968490200D5012070474268491EF3
:1043B00022F4604242EA413141607047002941687D
:1043C00002D041F4006101E021F4006141607047D6
:1043D00070B5072609290AD9C568A1F10A0404EBBA
:1043E0004404A640B543A3401D43C56007E00569EA
:1043F00001EB4104A640B543A3401D4305611F23C3
:10440000072A09D2446B521E02EB820293409C435E
:1044100091400C43446370BD0D2A09D2046BD21F36
:1044200002EB820293409C4391400C43046370BDB5
:10443000C46A0D3A02EB820293409C4391400C43C4
:10444000C46270BD0029816802D041F4801101E08E
:1044500021F4801181607047C06C80B2704754486D
:104460004C30006870470029416802D041F48061F7
:1044700001E021F48061416070470029416802D069
:1044800041F4805101E021F480514160704782681D
:1044900022F4E0420A43826070470029816802D01A
:1044A00041F4004101E021F400418160704700299E
:1044B000816802D041F4021101E021F4021181600F
:1044C0007047014600208968890200D501207047A5
:1044D00070B5072609290AD9C568A1F10A0404EBB9
:1044E0004404A640B543A3401D43C56007E00569E9
:1044F00001EB4104A640B543A3401D430561836B16
:10450000C3F30154121B921C02EB82021F2494403D
:10451000A34391400B43836370BD826B491E22F419
:10452000401242EA01518163704708B50844009087
:10453000026008BD08B5084428300090006880B2C9
:1045400008BD42681F4B1A400A43426070474162EF
:1045500082627047426822F01F020A43426070473D
:10456000134908310028086802D040F4000001E037
:1045700020F40000086070470246002012680A42DA
:1045800000D001207047C9430160704710B5024652
:10459000002054680B0AC9B20C401168194202D0BD
:1045A000002C00D0012010BD6FEA1121016070477E
:1045B0000024014000280140003C0140FFFEF0FFC4
:1045C000FDF7F1FFFFFD3FFF10B5012000F085FE74
:1045D000BDE81040002000F080BE1F490860704711
:1045E0001D49091F086070471B49843108607047E6
:1045F0001A4A118821F46071014311807047174AEB
:10460000118821F07F01014311807047134A08B5DA
:104610002C3A10440090016008BD104908B52C39AF
:1046200008440090008808BD0B489C300068C0B268
:1046300070470A480830018841F001010180704745
:104640000548A0300068C0B27047044808300188AF
:1046500041F002010180704704860D422C6C00403D
:10466000FE4910B588424FF0010101D14C0601E02E
:104670004FF08064204600F027FE2046BDE8104041
:10468000002100F021BE10B50368002223F00203D0
:104690000360036843F0010303604FF6FF7300E01B
:1046A000521C4468E40701D19A42F9D14268D2070A
:1046B0003ED08A79012A02683CD022F08002026052
:1046C000CA79012A026838D022F0400202600A7AD0
:1046D000012A026834D022F0200202604A7A012ABC
:1046E000026830D022F0100202608A7A012A026841
:1046F0002CD022F008020260CA7A012A026828D06F
:1047000022F0040202608A78CC78920742EA0462BE
:104710000C7942EA04424C79098842EA0452491E63
:104720000A43C261016821F001010160002114E027
:10473000002010BD42F08002C1E742F04002C5E710
:1047400042F02002C9E742F01002CDE742F0080231
:10475000D1E742F00402D5E7491C4268D20701D0F4
:104760009942F9D14068C007E2D1012010BDF0B5EF
:10477000827ABB4D012191402A6842F001022A60F1
:10478000B74E1C3632688A433260B54A047BB54B5B
:104790000C32A4B914688C4314604488C78844EA76
:1047A0000744877A03EBC707C7F840460488878821
:1047B00044EA0744877A03EBC707C7F84446047BFB
:1047C000012C12D114680C431460847A026803EB44
:1047D000C4044FEA3242C4F84026847A426803EBAC
:1047E000C4034FEA3242C3F844269D4AC37A121DDD
:1047F000002B136806D00B431360994A03891432C7
:1048000013B104E08B43F7E713688B43136003890C
:10481000012B02D113680B431360407B012802D1A6
:10482000306808433060286820F001002860F0BD3F
:1048300000218171C171017241728172C1728170F6
:10484000C170032101710221417101210180704772
:1048500083490A6842F001020A600A6843F60E734F
:104860009A430A600A6842EA00200860086820F05B
:104870000100086070470029016802D041F48031CE
:1048800001E021F48031016070470029016813D0F4
:1048900041F080010160D0F8841141F48071C0F8CA
:1048A0008411D0F8941141F48071C0F89411D0F8BB
:1048B000A41141F4807112E021F080010160D0F870
:1048C000841121F48071C0F88411D0F8941121F47E
:1048D0008071C0F89411D0F8A41121F48071C0F84F
:1048E000A411704730B50246002093685B0108D4DC
:1048F0009068000101D5012003E09068C00037D521
:10490000022002EB0012D2F8803103F00103C2F85A
:1049100080310B7A73B3D2F880414D681C434B7AD7
:1049200043EAC5031C43C2F880418B7A03F00F03AE
:104930008B72D2F8843123F00F03C2F88431D2F89D
:1049400084318C7A2343C2F88431CB7ACC6843EA31
:104950000423C2F88831CB7B096943EA0121C2F8FC
:104960008C11D2F8801141F00101C2F8801130BDE4
:10497000042030BDD2F880314C7A23430C8843EABE
:104980004453C2F88031D0E7002221B1012905D07B
:10499000022906D112E08268334801E08268334878
:1049A00002403349501A8A4214D00ADCA2B16FF097
:1049B000806010180FD002280CD10FE082682D48BB
:1049C000EEE7B0F5007F09D02B49401803D0B0F5D1
:1049D000003F03D00020704702207047012070473D
:1049E00041B101290AD0022903D1816841F40001B3
:1049F00081607047816841F08001F9E7816841F486
:104A00000041F5E710B500EB0113D3F8B04114F005
:104A100004041472D3F8B04145D0E4085460D3F8CC
:104A2000B04104F002045472D3F8B44104F00F040E
:104A30009472D3F8B441240AD474D3F8B841D47230
:104A4000D3F8B841240A1473D3F8B841240C547332
:104A5000D3F8B841240E947310E0000000640040C5
:104A600000660040006000400300000400030008EE
:104A700000010008000003100001FFF7D3F8BC415B
:104A8000D473D3F8BC41240A1474D3F8BC41240C69
:104A90005474D3F8BC311B0E937439B1016941F0E1
:104AA0002001016110BD640D1460B8E7C16841F0D8
:104AB0002001C16010BD21B1016941F020010161F7
:104AC0007047C16841F02001C16070470246002074
:104AD00029B1012902D1106900F003007047D068A4
:104AE000FAE700234FF6FF7221B1012917D00229FE
:104AF00024D03AE0016821F0020141F00101016097
:104B000000E0521E416801F00301012901D0002A92
:104B1000F7D1406800F00300012823D124E00168A8
:104B200021F00301016000E0521E4168890701D0B5
:104B3000002AF9D14068800714D115E0016821F0FE
:104B4000010141F00201016000E0521E416801F0E4
:104B50000301022901D0002AF7D1406800F00300C8
:104B6000022801D0002300E00123184670470268A4
:104B7000002122F0010242F002020260406800F0CF
:104B80000300022800D101210846704702684FF651
:104B9000FF71002322F00202026000E0491E426819
:104BA000920701D50029F9D14068800700D401237C
:104BB000184670478069C0F3021000017047806991
:104BC000000E70478069C0F307407047002A4269B1
:104BD00001D00A4300E08A43426170470246002048
:104BE00011F4700F03D0926904E001207047CB01EB
:104BF00004D552680A401103F7D170470B0101D563
:104C00009268F7E78B0101D5D268F3E71269F1E703
:104C1000534A914202D1002181617047C1F31302CE
:104C20008B0101D5C26070474B0101D5026170470D
:104C3000090101D58260704742607047024600203A
:104C400053690B424AD0B1F5807F3BD013DC082971
:104C50002ED007DC012926D0022927D004293DD1F6
:104C6000D0682BE0102925D0202926D0402935D125
:104C70001069102130E0B1F5004F2BD00BDCB1F5FD
:104C8000007F22D0B1F5806F22D0B1F5006F25D121
:104C90009069702120E0B1F5803F11D0B1F5003F5F
:104CA0001CD15068E5E790682E4915E0D06802E015
:104CB000D068DEE7106903210EE0106908210BE0DF
:104CC0005068FBE79069012106E09069022103E04A
:104CD000906900E05068042100F03BB8704730B59F
:104CE000082310240422B1F5007F1DD010DC2029F8
:104CF00029D007DC012921D0042922D0082900D19C
:104D0000C46030BD402920D0B1F5807FF9D10BE0DF
:104D10000025B1F5004F06D008DCB1F5806F03D057
:104D2000B1F5006FEDD18561426030BDB1F5803FD6
:104D30000DD0B1F5003FF8D1446030BD0949816024
:104D400030BDC36030BD036130BD046130BD436020
:104D500030BD024600200A4200D00120704700000A
:104D60007000F030010101008F4910B5884206D172
:104D70000121042000F09FFA002104203BE08B4930
:104D8000884206D10121082000F095FA0021082070
:104D900031E08749884206D10121102000F08BFACA
:104DA0000021102027E08349884206D101212020DC
:104DB00000F081FA002120201DE07F49884206D1C1
:104DC0000121402000F077FA0021402013E07B49C8
:104DD000884206D10121802000F06DFA0021802058
:104DE00009E0774988420AD184150121204600F064
:104DF00062FA00212046BDE8104000F05CBA10BD08
:104E000010B50121084600F056FA0021BDE8104017
:104E1000012000F050BAF0B5CC78002204F00F0366
:104E2000E40601D58C7823430C784FF00F0C14F076
:104E3000FF0F4FF0010E1BD005680E880EFA02F42A
:104E40002640A64210D196000CFA06F725EA07077D
:104E500003FA06F5CE783D43282E02D0482E02D024
:104E600002E0446100E00461521C082AE5D30560B9
:104E70000A88FF2A1CD94468002202F108060EFAAB
:104E800006F50E882E40AE420ED196000CFA06F7BB
:104E9000BC4303FA06F7CE783C43282E00D1456187
:104EA000CE78482E00D10561521C082AE5D3446013
:104EB000F0BD4FF6FF710180022181700421C170A5
:104EC00070470246002092680A4200D001207047D5
:104ED000806880B2704702460020D2680A4200D043
:104EE00001207047C06880B270470161704741611E
:104EF00070470AB10161704741617047C1607047F6
:104F000041F4803282618161826181698069704788
:104F10002C4B10B51A684FF68074224042EA0010FC
:104F20000843186010BD2849C8617047F0B5254C8A
:104F3000002801DAE36900E06368450D2E0185B2BF
:104F4000C0F30157B540C0F30342032F05D0C6029A
:104F50000AD503269640B34307E023F070626368E6
:104F600023F07063636002E0AB4343F0706201B111
:104F70002A43002801DAE261F0BD6260F0BD10B59D
:104F80008A0721F003040F49120F21440F238C6874
:104F900093409C438C608B68904003438B6010BDB2
:104FA0000949C1F8DC00704700080140000C0140CD
:104FB000001001400014014000180140001C014095
:104FC00000200140000001400000204210B50121F6
:104FD0000C07204600F078F92046BDE8104000217B
:104FE00000F072B921490862704720490861704792
:104FF0001F4A116821F0E0010143116070471B490D
:10500000C1F8A00070471A4B1A6822F0030202434D
:105010001A601848026842F004020260012905D0B3
:1050200020BF016821F004010160704730BFF8E73C
:105030000F48016841F004010160016841F002017C
:1050400001600C48016841F00401016030BF704705
:10505000074A0146002052680A4200D001207047EA
:1050600003490A6842EA80000860704700000E4267
:105070000070004010ED00E0A548016841F001011A
:1050800001604168A34A114041600168A24A114091
:105090000160016821F480210160416821F4FE0172
:1050A00041604FF41F018160704799490A6822F4FA
:1050B00080320A600A6822F480220A60B0F5803FDC
:1050C00007D0B0F5802F03D1086840F4A020086015
:1050D0007047086840F48030F9E70346002059091A
:1050E0008B4A01290AD002290AD0516A03F01F0213
:1050F000012393400B4200D0012070471168F5E76F
:10510000116AF3E718B500204FF4A0640090312035
:10511000FFF7E3FF0099491C0091A14201D000284C
:10512000F5D03120FFF7D9FF002800D0012018BDAD
:10513000774A116821F0F80141EAC0001060704719
:10514000764908607047724B5A68084322F47C1213
:105150001043586070477149086670476C4A51683F
:1051600021F003010143516070476948406800F035
:105170000C007047664A516821F0F001014351600C
:105180007047634A516821F4E06101435160704700
:105190005F4A516821F4605141EAC0005060704795
:1051A0005B4A0029517A01D0014300E081435172EA
:1051B00070475A49C1F8D8007047554A516821F4E0
:1051C00040410143516070475149002281F820203D
:1051D00081F82020012802D0042802D1052081F87E
:1051E000200070474E490860704749490A6A0243E7
:1051F0000A6270474A4944390860704730B5444AEA
:105200005168484B11F00C0103D0042901D0082942
:1052100001D0036012E05168536801F470114FF03F
:10522000020413F4803F04EB914102D053689B03C6
:1052300001D53D4B00E03B4B5943016051680F23C2
:1052400003EA1111394B5C5C0168E140416054682C
:10525000072505EA14241C5D21FA04F484605468CF
:1052600005EAD4241B5DD940C1605268032303EAD8
:1052700092322E4B1B1F9A5CB1FBF2F1016130BDE3
:10528000234A0029516901D0014300E08143516163
:1052900070471F4A0029916901D0014300E0814312
:1052A000916170471A4A0029D16901D0014300E099
:1052B0008143D1617047164A0029D16801D001436A
:1052C00000E08143D1607047114A0029116901D083
:1052D000014300E081431161704711494039086082
:1052E00070470E49C86470470949C871704708483B
:1052F000416A41F0807141627047054A01460020D1
:1053000092680A4200D001207047014988727047B4
:10531000001002400000FFF8FFFFF6FE00004242CE
:105320008004424200127A0000093D00140200206D
:10533000F94910B5884202D10121C41486E0B0F1C8
:10534000804F09D0F54988420DD101210220FFF795
:10535000BBFF0021022064E001210846FFF7B4FFF3
:10536000002101205DE0EE49884206D101210420A0
:10537000FFF7AAFF0021042053E0EA49884206D142
:1053800001210820FFF7A0FF0021082049E0E6499D
:10539000884206D101211020FFF796FF002110203E
:1053A0003FE0E249884206D101212020FFF78CFF2F
:1053B0000021202035E0DE49884202D10121441439
:1053C00044E0DC49884202D10121CC043EE0DA49C4
:1053D000884202D101210C0538E0D849884202D127
:1053E00001214C0532E0D649884206D101214020F6
:1053F000FFF76AFF0021402013E0D249884206D11E
:1054000001218020FFF760FF0021802009E0CE49C4
:1054100088420AD1841501212046FFF755FF00215B
:105420002046BDE81040FFF74FBFC849884202D16F
:1054300001210C040AE0C649884202D101214C0432
:1054400004E0C44988420AD101218C042046FFF7B8
:1054500032FF2046BDE810400021FFF72CBF10BDF1
:1054600030B50288AC4CB24DA0420DD0A8420BD052
:10547000B0F1804F08D0A94B984205D0A84B984274
:1054800002D0A84B984203D122F070034A881A43F5
:10549000A54B984206D0A54B984203D022F4407306
:1054A000CA881A4302808A8882850A880285A042B7
:1054B0000AD0A84208D0A54A904205D0A44A9042FA
:1054C00002D0A44A904201D1097A01860121818249
:1054D00030BD30B5028C22F001020284028C838838
:1054E000048B22F0020224F073050C882C430D89F2
:1054F00015434A882A43884DA8420BD08C4DA842B8
:1055000008D0924DA84205D0914DA84202D0914DAD
:10551000A8420DD122F008054A8923F440732A439A
:1055200022F004058A882A438D891D43CB892B43A9
:1055300083800483C9888186028430BD70B5028C63
:1055400022F010020284028C8388048B0D8824F4DC
:10555000E6464FF6FF7404EA052535430E8922F02E
:10556000200204EA061616434A8804EA021232436D
:10557000694EB04202D06E4EB04215D122F0800684
:105580004A8923F4406304EA0212324322F04006BF
:105590008A8804EA021232438E8904EA86061E4390
:1055A000CB8904EA8303334383800583C988018759
:1055B000028470BD70B5028C22F480720284028C69
:1055C0008388848B0D8824F0730425430E894FF65D
:1055D000FF7422F4007204EA062616434A8804EA9D
:1055E000022232434C4EB04202D0514EB04215D14D
:1055F00022F400664A8923F4405304EA022232432B
:1056000022F480668A8804EA022232438E8904EA00
:1056100006161E43CB8904EA031333438380858334
:10562000C9888187028470BD70B5028C22F48052D3
:105630000284058C8288838B0C8823F4E6464FF61F
:10564000FF7303EA0424344325F400560D8903EA6A
:10565000053535434E8803EA06362E432E4DA842C3
:1056600002D0334DA84205D122F480458A8903EA4D
:1056700082122A4382808483C988A0F8401006845D
:1056800070BD828B22F440628283828B4FF6FF735F
:1056900003EA01210A4382837047828B22F00C02C5
:1056A0008283828B0A4382837047028B22F440629A
:1056B0000283028B4FF6FF7303EA01210A43028340
:1056C0007047F0B5048C24F010040484078B048C1C
:1056D0004FF6FF7527F4734705EA03333B4305EAAA
:1056E00002221A430C4B05EA011698420ED0104BC9
:1056F00098420BD0B0F1804F08D0084B984205D0AB
:10570000074B984202D0074B984225D124F0200144
:10571000314341F0100124E0002C0140000400401E
:1057200000080040000C0040001000400014004041
:1057300000340140004C0140005001400054014041
:1057400000180040001C00400020004000400140C4
:10575000004401400048014024F0A0030B4343F003
:10576000100102830184F0BD028B22F00C0202833F
:10577000028B0A430283704770B5048C24F0010445
:105780000484058B048C4FF6FF7606EA031313435B
:1057900025F0F305F84A2B4390420ED0F74A904289
:1057A0000BD0B0F1804F08D0F54A904205D0F54AB1
:1057B000904202D0F44A904202D124F0020201E069
:1057C00024F00A020A4342F001010383018470BD00
:1057D0002DE9F84F0D4604460888E74FDFF89CC3D3
:1057E000DFF89C83DFF89C934988AA882B894FF0C7
:1057F000804A48B304282FD04FF6FF7608289346F6
:1058000032D0208C9E4620F480502084A38B208CA4
:1058100006EA0132009223F4734306EA0B221A438C
:1058200006EA0E331343BC420AD0644508D05445FF
:1058300006D0444504D04C4502D0D34A944242D1CC
:1058400020F40050009940E02046FFF795FFE988DA
:105850002046BDE8F84F87E72046FFF732FFE9888A
:105860002046BDE8F84F20E7208C20F4807020848B
:10587000B4F81CE0208C06EA031306EA01222EF09D
:10588000F30E43EA0B0343EA0E030092BC420AD034
:10589000644508D0544506D0444504D04C4502D058
:1058A000B94A944203D120F40070009901E020F439
:1058B0002060084340F48070A3832084E988204658
:1058C000BDE8F84FE9E620F40240084340F4805078
:1058D000A3832084E9882046BDE8F84FD1E62DE96E
:1058E000F0410C46002649880746012501B90226E9
:1058F000A288012A00D10225208823890028384661
:1059000010D0FFF7DEFEE1883846FFF7CEFE238990
:105910002A4631463846FFF72FFFE1883846BDE872
:10592000F04121E7FFF728FFE1883846FFF71CFF29
:1059300023892A4631463846FFF7C3FEE1883846B8
:10594000BDE8F041B1E610B50A884B88CC881A430F
:105950008B8823431A430B891A434B8989891A433D
:105960000A43A0F8442010BD4FF6FF71818000214A
:105970000180C18041800172704700210180418017
:105980008180C180018141818181C1817047002175
:105990000180418001228280C18001817047002105
:1059A000018041808180C180018141818181704776
:1059B0000029018802D041F0010101E021F001013C
:1059C00001807047002930F8441F02D041F40041A3
:1059D00001E0C1F30E0101807047002A828901D0E5
:1059E0000A4300E08A4382817047818270471143F5
:1059F000A0F848107047002A828901D00A4300E0CD
:105A00008A4382817047018921F007010181704733
:105A1000028922F070020A430281704700B50346F2
:105A2000FFF7F6FF188940F00700188100BD70B538
:105A300016460D46602904464FF0010231460AD051
:105A4000FFF79AFE29462046FFF7E2FF208940F043
:105A50000700208170BDFFF734FEF3E730B50489FD
:105A60004FF6FF7505EA03231343E4B20B432343C8
:105A7000038130BD10B50446FFF7F0FF208940F0E8
:105A80007700208110BD10B50446FFF7E7FF20899D
:105A900040F48040208110BD0185828270470288D9
:105AA00022F070020A430280704770B50589048BAA
:105AB000068C25F007050D434FF6FC410C4040F2E3
:105AC00001110C434FF6FF7101EA031126F0220683
:105AD0001143314305810483018470BD028B22F0A0
