:020000040800F2
:100000000000012025E3000829D4000835D40008A9
:100010003BD4000841D4000847D400080000000089
:100020000000000000000000000000004DD40008A7
:1000300059D400080000000065D4000871D40008FD
:100040006DE300086DE300086DE300086DE3000850
:100050006DE300086DE300086DE300086DE3000840
:100060006DE300086DE300086DE300086DE3000830
:100070007DD4000891D40008A5D40008B9D40008A4
:100080006DE300086DE300086DE300086DE3000810
:100090006DE300086DE300086DE300086DE3000800
:1000A0006DE300086DE300086DE300086DE30008F0
:1000B0006DE300086DE300086DE300086DE30008E0
:1000C0006DE300086DE300086DE300086DE30008D0
:1000D0006DE30008CDD400086DE30008E5D4000806
:1000E0006DE300086DE300086DE300086DE30008B0
:1000F0006DE300086DE300086DE300086DE30008A0
:100100006DE300086DE300086DE300086DE300088F
:100110006DE300086DE300086DE300086DE300087F
:100120006DE300086DE300086DE300086DE300086F
:1001300000000000000000000000000000000000BF
:1001400000000000000000000000000000000000AF
:10015000000000000000000000000000000000009F
:10016000000000000000000000000000000000008F
:10017000000000000000000000000000000000007F
:10018000000000000000000000000000000000006F
:10019000000000000000000000000000000000005F
:1001A000000000000000000000000000000000004F
:1001B000000000000000000000000000000000003F
:1001C000000000000000000000000000000000002F
:1001D000000000000000000000000000000000001F
:0401E0005FF8E0F1F3
:1001E80010B5054C237833B9044B13B10448AFF369
:1001F80000800123237010BDE801002000000000EA
:10020800682A010808B5034B1BB103490348AFF33B
:10021800008008BD00000000EC010020682A0108E9
:1002280081F0004102E000BF83F0004330B54FEA9F
:1002380041044FEA430594EA050F08BF90EA020F0C
:100248001FBF54EA000C55EA020C7FEA645C7FEA9F
:10025800655C00F0E2804FEA5454D4EB5555B8BFC2
:100268006D420CDD2C4480EA020281EA030382EA33
:10027800000083EA010180EA020281EA0303362DC5
:1002880088BF30BD11F0004F4FEA01314FF4801C98
:100298004CEA113102D0404261EB410113F0004FAA
:1002A8004FEA03334CEA133302D0524263EB430361
:1002B80094EA050F00F0A780A4F10104D5F1200EFF
:1002C8000DDB02FA0EFC22FA05F2801841F100015A
:1002D80003FA0EF2801843FA05F359410EE0A5F12E
:1002E80020050EF1200E012A03FA0EFC28BF4CF05F
:1002F800020C43FA05F3C01851EBE37101F0004515
:1003080007D54FF0000EDCF1000C7EEB00006EEB21
:100318000101B1F5801F1BD3B1F5001F0CD34908AB
:100328005FEA30004FEA3C0C04F101044FEA445202
:1003380012F5800F80F09A80BCF1004F08BF5FEA89
:10034800500C50F1000041EB045141EA050130BD69
:100358005FEA4C0C404141EB0101013C28BFB1F57B
:10036800801FE9D291F0000F04BF01460020B1FAC6
:1003780081F308BF2033A3F10B03B3F120020CDA99
:100388000C3208DD02F1140CC2F10C0201FA0CF077
:1003980021FA02F10CE002F11402D8BFC2F1200CDC
:1003A80001FA02F120FA0CFCDCBF41EA0C01904092
:1003B800E41AA2BF01EB0451294330BD6FEA0404DB
:1003C8001F3C1CDA0C340EDC04F11404C4F12002C6
:1003D80020FA04F001FA02F340EA030021FA04F3D8
:1003E80045EA030130BDC4F10C04C4F1200220FA2F
:1003F80002F001FA04F340EA0300294630BD21FA6D
:1004080004F0294630BD94F0000F83F4801306BF32
:1004180081F480110134013D4EE77FEA645C18BF26
:100428007FEA655C29D094EA050F08BF90EA020FBD
:1004380005D054EA000C04BF1946104630BD91EAB5
:10044800030F1EBF0021002030BD5FEA545C05D1B8
:100458004000494128BF41F0004130BD14F58004F7
:100468003CBF01F5801130BD01F0004545F0FE416B
:1004780041F470014FF0000030BD7FEA645C1ABFA0
:10048800194610467FEA655C1CBF0B46024650EAD7
:10049800013406BF52EA033591EA030F41F4002103
:1004A80030BD00BF90F0000F04BF0021704730B589
:1004B8004FF4806404F132044FF000054FF000015E
:1004C80050E700BF90F0000F04BF0021704730B51F
:1004D8004FF4806404F1320410F0004548BF4042F4
:1004E8004FF000013EE700BF42004FEAE2014FEA49
:1004F80031014FEA02701FBF12F07F4393F07F4F24
:1005080081F06051704732F07F4208BF704793F026
:100518007F4F04BF41F40021704730B54FF4607439
:1005280001F0004521F000411CE700BF50EA01023C
:1005380008BF704730B54FF000050AE050EA0102E5
:1005480008BF704730B511F0004502D5404261EB55
:1005580041014FF4806404F132045FEA915C3FF496
:10056800D8AE4FF003025FEADC0C18BF03325FEA33
:10057800DC0C18BF033202EBDC02C2F1200300FAE4
:1005880003FC20FA02F001FA03FE40EA0E0021FA09
:1005980002F11444BDE600BF70B54FF0FF0C4CF4F7
:1005A800E06C1CEA11541DBF1CEA135594EA0C0FA9
:1005B80095EA0C0F00F0DEF82C4481EA030621EAE4
:1005C8004C5123EA4C5350EA013518BF52EA03351F
:1005D80041F4801143F4801338D0A0FB02CE4FF0D1
:1005E8000005E1FB02E506F00042E0FB03E54FF001
:1005F8000006E1FB03569CF0000F18BF4EF0010EF9
:10060800A4F1FF04B6F5007F64F5407404D25FEAF4
:100618004E0E6D4146EB060642EAC62141EA5551A7
:100628004FEAC52040EA5E504FEACE2EB4F1FD0CE9
:1006380088BFBCF5E06F1ED8BEF1004F08BF5FEA67
:10064800500E50F1000041EB045170BD06F0004619
:1006580046EA010140EA020081EA0301B4EB5C04C6
:10066800C2BFD4EB0C0541EA045170BD41F48011BE
:100678004FF0000E013C00F3AB8014F1360FDEBFE3
:10068800002001F0004170BDC4F10004203C35DABF
:100698000C341BDC04F11404C4F1200500FA05F342
:1006A80020FA04F001FA05F240EA020001F00042E3
:1006B80021F0004110EBD37021FA04F642EB060159
:1006C8005EEA430E08BF20EAD37070BDC4F10C0483
:1006D800C4F1200500FA04F320FA05F001FA04F247
:1006E80040EA020001F0004110EBD37041F1000133
:1006F8005EEA430E08BF20EAD37070BDC4F120053E
:1007080000FA05F24EEA020E20FA04F301FA05F2A5
:1007180043EA020321FA04F001F0004121FA04F24D
:1007280020EA020000EBD3705EEA430E08BF20EA1D
:10073800D37070BD94F0000F0FD101F00046400057
:1007480041EB010111F4801F08BF013CF7D041EAD9
:10075800060195F0000F18BF704703F000465200DD
:1007680043EB030313F4801F08BF013DF7D043EAAE
:100778000603704794EA0C0F0CEA135518BF95EA64
:100788000C0F0CD050EA410618BF52EA4306D1D1EB
:1007980081EA030101F000414FF0000070BD50EA0A
:1007A800410606BF1046194652EA430619D094EA94
:1007B8000C0F02D150EA013613D195EA0C0F05D17E
:1007C80052EA03361CBF104619460AD181EA0301D2
:1007D80001F0004141F0FE4141F470014FF000008A
:1007E80070BD41F0FE4141F4780170BD70B54FF025
:1007F800FF0C4CF4E06C1CEA11541DBF1CEA1355A5
:1008080094EA0C0F95EA0C0F00F0A7F8A4EB050486
:1008180081EA030E52EA03354FEA013100F088807D
:100828004FEA03334FF0805545EA131343EA126346
:100838004FEA022245EA111545EA10654FEA0026FB
:100848000EF000419D4208BF964244F1FD0404F5B4
:10085800407402D25B084FEA3202B61A65EB030510
:100868005B084FEA32024FF480104FF4002CB6EBCD
:10087800020E75EB030E22BFB61A754640EA0C004D
:100888005B084FEA3202B6EB020E75EB030E22BF8D
:10089800B61A754640EA5C005B084FEA3202B6EBCE
:1008A800020E75EB030E22BFB61A754640EA9C008D
:1008B8005B084FEA3202B6EB020E75EB030E22BF5D
:1008C800B61A754640EADC0055EA060E18D04FEA1B
:1008D800051545EA16754FEA06164FEAC30343EABB
:1008E80052734FEAC2025FEA1C1CC0D111F4801F88
:1008F8000BD141EA00014FF000004FF0004CB6E781
:1009080011F4801F04BF01430020B4F1FD0C88BF1F
:10091800BCF5E06F3FF6AFAEB5EB030C04BFB6EB2A
:10092800020C5FEA500C50F1000041EB045170BD1D
:100938000EF0004E4EEA113114EB5C04C2BFD4EB4A
:100948000C0541EA045170BD41F480114FF0000ECE
:10095800013C90E645EA060E8DE60CEA135594EA4A
:100968000C0F08BF95EA0C0F3FF43BAF94EA0C0F4D
:100978000AD150EA01347FF434AF95EA0C0F7FF4C2
:1009880025AF104619462CE795EA0C0F06D152EA16
:1009980003353FF4FDAE1046194622E750EA4106FA
:1009A80018BF52EA43067FF4C5AE50EA41047FF40B
:1009B8000DAF52EA43057FF4EBAE12E74FF0FF3C70
:1009C80006E000BF4FF0010C02E000BF4FF0010C41
:1009D8004DF804CD4FEA410C7FEA6C5C4FEA430CBA
:1009E80018BF7FEA6C5C1BD001B050EA410C0CBF09
:1009F80052EA430C91EA030F02BF90EA020F00206B
:100A0800704710F1000F91EA030F58BF994208BFD1
:100A180090422CBFD8176FEAE37040F0010070478E
:100A28004FEA410C7FEA6C5C02D150EA013C07D1E5
:100A38004FEA430C7FEA6C5CD6D152EA033CD3D030
:100A48005DF8040B704700BF8446104662468C462A
:100A58001946634600E000BF01B5FFF7B7FF00285D
:100A680048BF10F1000F01BD4DF808EDFFF7F4FF86
:100A78000CBF012000205DF808FB00BF4DF808ED11
:100A8800FFF7EAFF34BF012000205DF808FB00BF34
:100A98004DF808EDFFF7E0FF94BF012000205DF856
:100AA80008FB00BF4DF808EDFFF7CEFF94BF01200B
:100AB80000205DF808FB00BF4DF808EDFFF7C4FF04
:100AC80034BF012000205DF808FB00BF4FEA410C4D
:100AD8007FEA6C5C02D150EA013C0AD14FEA430C30
:100AE8007FEA6C5C02D152EA033C02D14FF000006D
:100AF80070474FF0010070474FEA410212F50012AB
:100B080015D211D56FF47873B3EB625212D94FEA4C
:100B1800C12343F0004343EA505311F0004F23FA36
:100B280002F018BF404270474FF00000704750EA8B
:100B3800013005D111F0004008BF6FF00040704748
:100B48004FF00000704700BF4A0011D212F50012A2
:100B580011D20DD56FF47873B3EB62520ED44FEA0D
:100B6800C12343F0004343EA505323FA02F070478D
:100B78004FF00000704750EA013002D14FF0FF30CB
:100B880070474FF00000704703685A004CBF43F0AD
:100B9800004323F000431844704700BF2DE9F84391
:100BA80029B34F1E044615463E464FF0000808EB91
:100BB800060101EBD171491004EBC1094846FFF762
:100BC800E3FF0346C80008308F42204409D0AB42F7
:100BD80009D8FFF7D9FF0138A8420AD201F1010864
:100BE800E5E7AB4205D9884501D04E1EDFE74FF057
:100BF80000094846BDE8F883012807D0022807D035
:100C0800044B00280CBF1846002070470248704764
:100C180002487047C5120008C9120008CD12000822
:100C280030B5244B044683B08D1E3BB3284601A93A
:100C3800AFF30080E8B101992A46FFF7AFFF0146FC
:100C4800B8B1FFF7A1FF4B68A064012B2DD0002B92
:100C580026DB081DFFF798FF0023C4E91303036888
:100C6800002B12DBFFF790FF03460020236103B03F
:100C780030BD00230920236103B030BD0E4B0F495E
:100C88001846C91AC9100191D6E7C3F30360FFF7E4
:100C9800B3FF0028206114BF0020092003B030BD35
:100CA8000123081DC4E91303D9E7002305202361A4
:100CB800DDE700BF0000000058440108C04A0108F1
:100CC800036810B5DA07044606D49B0700F148000C
:100CD80009D500F041FC2368590709D51A070ED534
:100CE800DB0613D510BD00F02FFC23685907F5D497
:100CF80004F1D00000F038FC23681A07F0D404F59A
:100D0800A87000F039FC2368DB06EBD404F5E87022
:100D1800BDE8104000F074BC0346006800B11844F8
:100D2800704700BF09207047704700BF70B5044680
:100D38000E462046316CFFF773FF054688B9326CC2
:100D48002146626101203246236998470828F0D07D
:100D5800072806D12846316CFFF7E6FF301D00F062
:100D6800E7FB10F095FC00BF2DE9F04706464FF071
:100D7800000CADF5727D03AD0C1D91460FCC0FC56F
:100D88000FCC0FC50FCC0FC594E80F00F768D6F845
:100D9800188085E80F0002ADC5F800C021E02B6C73
:100DA8004FF4F072736129467AA810F0C1FC3146FD
:100DB80034697AAA5046A047889BCDE90058044672
:100DC8006B644946334632460120B8470346F0B9BA
:100DD8004FF4F07228467AA9994610F0A9FC082C1D
:100DE8001BD13046296CFFF71BFF09F1090904469E
:100DF8005FFA89FA0028D2D0AB6B3246CDE90058A9
:100E080001206B644AF010013346B84700B1092449
:100E180020460DF5727DBDE8F087072CF7D14846CE
:100E2800296CFFF781FF03A800F082FB406C704734
:100E38004FF0FF3CF0B5CB6BF9B00B640E1D01AC65
:100E48000F4605460FCE0FC40FCE0FC40FCE0FC4EA
:100E580096E80F0084E80F00CDF800C006E06A4667
:100E680029462B6998470828044608D1284610992E
:100E7800FFF7D6FE0028F2D0092079B0F0BD684609
:100E8800FFF71EFF062CF7D139462846FFF74EFF1D
:100E980030B4DD6BC160826119461D64002230BC2C
:100EA80062E700BF70B54369C6680B64AEB90A460D
:100EB800036904460D46014602209847072805D0D5
:100EC80008280FD129462046FFF730FF3046296C05
:100ED800FFF72AFF281D00F02BFB0122FFF744FF34
:100EE80010F0D6FB10F0D4FBC2682AB110B4CC6B5A
:100EF80000220C6410BC37E79AE700BF704700BFB8
:100F0800836801460BB1012018477047012912D0A8
:100F180009D873B90F2A0CD800EB8200426818462A
:100F2800009B1A6070470339012994BF01200220F1
:100F38007047022070470846704700BF002310B56D
:100F480084B003AC0A4600941946FFF7DFFF039804
:100F580004B010BD012912D009D873B90F2A0CD8D2
:100F6800009900EB820209681846516070470339FE
:100F7800012994BF012002207047022070470846CB
:100F8800704700BF30B500230D4685B003AC03920F
:100F980019462A460094FFF7DDFF05B030BD00BFB3
:100FA8004FF0FF3CF0B5D36BADF50F7D1364151D05
:100FB80017AC07460E460FCD0FC40FCD0FC40FCD8B
:100FC8000FC495E80F0084E80F00CDF858C012E070
:100FD8000C2116A86A46FFF7D5FF314616A8B84770
:100FE80078B969460820049B16AA9847052804463C
:100FF80008D0092805D068462699FFF711FE002871
:10100800E6D0092416A8FFF75BFE20460DF50F7DF4
:10101800F0BD00BF2DE9F04FCC6C174654F8042BF7
:1010280089B00D461E4600F003080694002B79D0BF
:101038000221130C8DF81D301204DBB204EB83047B
:1010480005928DF81C102B6DB8F1020F08BFAC6B20
:1010580013F001030CD0384605A900F06BFB18B952
:10106800082009B0BDE8F08F092009B0BDE8F08F6D
:10107800D4F800A0BAF1000FEDD0019300F00803F6
:101088000293022E4AD0B4F800A0B4F802900434B7
:10109800AA6C0F21384629F0010B9344FFF74EFF45
:1010A800834539D82AF001025A44824294BF00206D
:1010B80001204FEA490303F002030AF0010A43EA58
:1010C8000A03012B49D0022B32D0002BCCD1B8F126
:1010D800000F02D0002840F0CD800434D4F800A0DE
:1010E800BAF1000FCDD1384605A900F023FB00283E
:1010F800BAD1019B002BB3D00F213846FFF71EFF52
:101108000E2102463846FFF73DFF38460F216A4A4E
:10111800FFF738FF0720A8E70020CAE7D4F80490B3
:101128000834B5E7032312020592ADF81C308AE7AC
:10113800236823F0004BB8F1000F45D128B1029A7B
:10114800002A5CD0BBF1000F74D0002B00DA043405
:101158000BF1010B04EB8B04C0E7B8F1000F19D1B8
:10116800B0B1D4E90023991C4FEAD2723FF47CAFA6
:1011780005F158010133049100F09080201DFFF71C
:10118800CBFD04AB014628460DF090F900285BD151
:101198000834A3E70D213846D5F82090FFF7CEFE96
:1011A8008145F5D1AB6A9C42F2D12046FFF7ECFCB1
:1011B8000F2102463846FFF7E5FE38462A46002149
:1011C800FFF7E0FE072050E70D213846D5F82090BC
:1011D800FFF7B4FE814501D02368B6E7AB6A9C42AD
:1011E800FAD104220021C5E90B12A318C5F828B0CA
:1011F8006B6323688B4259DB01230193A8E705F150
:101208005803CDF80C809146B04604F1040A1E46F6
:101218000EE050460496FFF77FFD0022014604AB1E
:1012280028460DF043F909F101090AF1040AE0B969
:10123800D945EED138460D21FFF780FE049B286280
:10124800C5E90934062010E781460D213846FFF725
:1012580075FEB9F1020F286225D12B46049A43F88E
:101268002C2F6B620620AC62FFE646462368DDF849
:101278000C806AE72046FFF787FC02460434AC631B
:10128800284614460DF070F900283FF4EDAE3846B4
:1012980022460F21FFF776FE0720E6E638460D21A5
:1012A800FFF74CFE2862049B6B62DBE70BF1010041
:1012B80004EB80007AE700BF61EE00080023A9E68E
:1012C8000123A7E60223A5E62DE9F04306461546C5
:1012D8001C46C3B0042900F2B280DFE801F0965042
:1012E800B0270300002C40F0AA80102A00F2A78043
:1012F8000368D80600F1EB8020AF384600F08AF981
:1013080000230120B26B00FA03F129421CBF52F8F6
:10131800041B47F823100133042BF4D13846B26379
:1013280000F06EF9002043B0BDE8F083032C40F0D4
:10133800868094B204EB1243102B4FEA12457ED8F4
:1013480003681F0700F1CB8020AF384600F036F95C
:1013580007EBC501B56B54B10B4601EBC401E81AA4
:10136800E4001A5843F8042B8B42FAD12544384636
:10137800B56300F001F9002043B0BDE8F083012C0B
:101388004FEA124895B256D0052C58D108EB0509FA
:10139800B9F1200F53D8B8F10F0F73D9A946002D12
:1013A80040F08480B36B65B320AF4FF0000907EBC2
:1013B800C807043F03EBC50553F8041BAB4247F8C5
:1013C800041FF9D1B9F1000F0FD06F46414610291B
:1013D80038BF102107EBC101843903EBC90553F865
:1013E800040BAB4241F8040FF9D1012C7FD0B8F1BE
:1013F8000F0FB56342D9B9F1000F02D0684600F06B
:10140800B3F8002043B0BDE8F083C4B923460124F3
:10141800826B371DA8B204FA03F101421CBF52F8CF
:10142800041B47F823100133102BF4D115F4005096
:10143800E7D1B26304E008EB0503102B03D90220BF
:1014480043B0BDE8F083B8F10F0FF8D83368DA0776
:1014580006D5304623F0030340F8483B00F078F8FF
:1014680020AF384600F074F8B36B002D9DD11D46AF
:1014780004353846B56300F067F8C2E720A800F0E5
:101488006BF8B8E7B9F1100F3FD9A9F11009336823
:10149800D90708D5304623F0010343F0020340F88A
:1014A800483B00F05DF8B9F1000F31D033685A07B6
:1014B8001FD4B8F10F0F24D96F46C8F1100538466C
:1014C80000F056F8002DB36B80DD20AF6FE723F0F6
:1014D8001003336006F5E87000F09CF80CE723F081
:1014E8000803036000F5A87000F068F82CE720AF47
:1014F800BEE7304623F0040340F8D03B00F038F84C
:10150800D7E720A800F02CF8D6E74FF00009BEE78F
:10151800B8F10F0F3FF646AF20AF384600F020F87D
:10152800B36B002D7FF441AF384600F015F868E73B
:1015380000F1340191E838009C46A6464CF8045D59
:1015480090E8FF0FE54600BD90EC210B704700BF07
:1015580080EC210B704700BF90EC200B704700BF58
:1015680080EC200B704700BFD0EC200B704700BF09
:10157800C0EC200B704700BFF0EC0201F0EC021148
:10158800F0EC0221F0EC0231F0EC0241F0EC0251F7
:10159800F0EC0261F0EC0271F0EC0281F0EC0291E7
:1015A800F0EC02A1F0EC02B1F0EC02C1F0EC02D1D7
:1015B800F0EC02E1F0EC02F1704700BFE0EC020150
:1015C800E0EC0211E0EC0221E0EC0231E0EC024137
:1015D800E0EC0251E0EC0261E0EC0271E0EC028127
:1015E800E0EC0291E0EC02A1E0EC02B1E0EC02C117
:1015F800E0EC02D1E0EC02E1E0EC02F1704700BF60
:10160800B0FC0181B0FC0191B0FC01A1B0FC01B1BA
:10161800704700BFA0FC0181A0FC0191A0FC01A1C2
:10162800A0FC01B1704700BFEC4600B52DE90050A1
:101638002DE9FF1F4FF000032DE90C0001A9FFF76A
:10164800F7FBDDF840E012B0704700BFEC4600B58C
:101658002DE900502DE9FF1F4FF000032DE90C0084
:1016680001A9FFF71FFCDDF840E012B0704700BF8A
:10167800EC4600B52DE900502DE9FF1F4FF000039F
:101688002DE90C0001A9FFF72FFCDDF840E012B0AE
:10169800704700BFEC4600B52DE900502DE9FF1F4B
:1016A8004FF000032DE90C0001ABFFF7F1FBDDF86B
:1016B80040E012B0704700BFEC4600B52DE900507D
:1016C8002DE9FF1F4FF000032DE90C0001AAFFF7D9
:1016D80067FCDDF840E012B0704700BF027A7AB9C3
:1016E800437AA3B103214268013B10B443721368E3
:1016F800141D01721A024460026010BC180E704773
:101708000368013A02721A020260180E7047B0208C
:10171800704700BF002300B585B003AA00921946A0
:101728000C22FFF7F3FB039805B05DF804FB00BF3C
:10173800F0E700BF2DE9F04305460E464FF00008DC
:1017480085B03046FFF7CAFFB028044600F0B180E4
:10175800070620D500F0F003802B4DD0902B36D013
:10176800A02B60D0B02B73D0C02B00F08A8000F083
:10177800F803D02B0BD100F00702013242F400220B
:10178800052301212846FFF79FFD0028D9D009200D
:1017980005B0BDE8F08300230DF10C0919460D22B0
:1017A8008700CDF800902846FFF7B0FBFFB2039BF7
:1017B800043760064CBFDF1BFF1800230D221946B3
:1017C8002846CDF800900397FFF7C4FBB9E700F06F
:1017D8000D030D2BDBD0002303AF194600F00F02D9
:1017E80000972846FFF792FB00230D22194628464A
:1017F8000097FFF7AFFBA4E73046FFF76FFF24021F
:101808002043B0F5004FC2D00023040119462846F2
:10181800A2B2FFF759FD0028B9D114F4004F18BF40
:101828004FF001088DE7C3434FF47F6203F00703CD
:101838001A410023010702F47F6248BF42F4804244
:1018480019462846FFF740FD00283FF47AAF9EE787
:10185800B12833D0B22800F08B80B32839D000F0FB
:10186800FC03B42B93D0012300F007021A4442F47E
:10187800002219462846FFF727FD00283FF461AFEC
:1018880085E7C62842D0C7284CD000F0F803C02B03
:101898005BD0C82860D0C9287FF479AF3046FFF7FD
:1018A8001DFF020300F00F0002F470220130024312
:1018B80066E7B8F1000F18D0002069E73046FFF757
:1018C8000DFF024600283FF462AF10F0F003D0D0BD
:1018D8005DE73046FFF702FF0123010300F00F0028
:1018E80001F47021C2180A43C3E703AC43460E2231
:1018F800414628460094FFF709FB284643460F2235
:1019080041460094FFF726FB404641E73046FFF783
:10191800E5FE010300F00F0001F47021421C0323CF
:101928000A43A6E73046FFF7D9FE024600283FF4EF
:101938002EAF10F0F0037FF42AAF04212846FFF7FA
:10194800C3FC00283FF4FDAE21E700F00F0201328E
:10195800032342F420228CE73046FFF7BFFE00F055
:10196800F00200F00F031032013343EA023207E7B6
:1019780000230DF10C090D2219462846CDF80090D8
:10198800FFF7C4FA3046FFF7A9FE02064FF002043B
:101998000CD5039B00F07F00A0400344304603931E
:1019A800FFF79CFE030604F10704F2D40023039A10
:1019B80000F07F0000FA04F402F50172144419469D
:1019C8000D222846CDF800900394FFF7C3FAB8E635
:1019D80010B50324C36C84B05A688DF80C40DC79C8
:1019E80012020833084601A901928DF80D400293AE
:1019F800FFF7A0FE04B010BD08B5FFF799FE806C94
:101A080008BD00BF08B5FFF793FEC06CC379023369
:101A180000EB830008BD00BF10F8012B11F8013B53
:101A2800012A28BF9A42F7D0D01A704780B500AF74
:101A3800084B1B68074A43F010031360032000F0AB
:101A480075FD002000F008F80BF0B8FC00231846DC
:101A580080BD00BF0020024080B582B000AF786032
:101A6800124B1A68124B1B7819464FF47A73B3FB62
:101A7800F1F3B2FBF3F3184600F08DFD0346002B9B
:101A880001D001230EE07B680F2B0AD80022796869
:101A98004FF0FF3000F055FD064A7B6813600023C5
:101AA80000E0012318460837BD4680BD70010020BC
:101AB800080000200400002080B400AF054B1B780C
:101AC8001A46054B1B681344034A136000BFBD4602
:101AD80080BC7047080000200402002080B400AFDA
:101AE800024B1B681846BD4680BC704704020020A4
:101AF80080B584B000AF7860FFF7F0FFB8607B680E
:101B0800FB60FB68B3F1FF3F05D00A4B1B781A4610
:101B1800FB681344FB6000BFFFF7E0FF0246BB68A9
:101B2800D31AFA689A42F7D800BF00BF1037BD46EB
:101B380080BD00BF0800002080B586B000AF786087
:101B48000023FB7500233B610023BB600023FB607F
:101B58007B68002B01D10123CEE07B689B68002BBA
:101B68007B689B6A002B09D17B680022DA627B685C
:101B7800002283F82420786804F01EFD786800F0BD
:101B8800CFFB0346FB757B689B6A03F01003002BB1
:101B980040F0A980FB7D002B40F0A5807B689B6A04
:101BA80023F4885323F0020343F002027B689A620D
:101BB8007B685A687B681B6851498B420AD17B68ED
:101BC800DB69B3F5402F02D07B68DB6904E04FF492
:101BD800002301E07B68DB691A437B681B7B5B00A1
:101BE8001343BA681343BB607B689B68B3F5807F77
:101BF80003D07B689B68012B02D14FF4807300E00F
:101C080000233A6913433B617B681B7D012B19D183
:101C18007B681B7B002B09D17B689B69013B5A03BE
:101C28003B69134343F400633B610BE07B689B6AA9
:101C380043F020027B689A627B68DB6A43F001020A
:101C48007B68DA627B681B685B6823F469417B68A0
:101C58001B683A690A435A607B681B689A68294B73
:101C680013407A681268B9680B4393607B689B6875
:101C7800B3F5807F03D07B689B68012B04D17B6818
:101C88001B69013B1B05FB607B681B68DB6A23F44F
:101C980070017B681B68FA680A43DA627B681B6814
:101CA8009A68194B1340BA689A420BD17B68002294
:101CB800DA627B689B6A23F0030343F001027B68C6
:101CC8009A6218E07B689B6A23F0120343F01002C3
:101CD8007B689A627B68DB6A43F001027B68DA62A0
:101CE8000123FB7507E07B689B6A43F010027B6861
:101CF8009A620123FB75FB7D18461837BD4680BDE7
:101D0800003C0140FDF7E1FFFE0E1FFF80B584B0E7
:101D180000AF78600023FB737B6893F82430012BB5
:101D280001D1022398E07B68012283F82420786897
:101D380000F0A4FA0346FB73FB7B002B40F087807E
:101D48007B689B6A23F4407323F0010343F4807299
:101D58007B689A627B681B68414A934205D1414B74
:101D68005B6803F47023002B15D17B689B6A23F40E
:101D780080127B689A627B681B685B6803F48063E7
:101D8800002B26D07B689B6A23F4405343F480528F
:101D98007B689A621DE07B689B6A43F480127B68CB
:101DA8009A627B681B682F4A934204D07B681B6841
:101DB8002B4A93420DD12B4B5B6803F48063002BB5
:101DC80007D07B689B6A23F4405343F480527B68B6
:101DD8009A627B689B6A03F48053002B06D07B6869
:101DE800DB6A23F006027B68DA6202E07B68002285
:101DF800DA627B68002283F824207B681B686FF016
:101E080002021A607B681B689B6803F46023B3F5C1
:101E1800602F13D17B681B68114A934205D1114B7F
:101E28005B6803F47023002B08D17B681B689A68F1
:101E38007B681B6842F4A0029A600CE07B681B6810
:101E48009A687B681B6842F480129A6003E07B689A
:101E5800002283F82420FB7B18461037BD4680BD3E
:101E6800002801400024014090B587B000AF786099
:101E7800396000237B610023FB6000233B61FFF78F
:101E88002DFE78617B681B689B6803F48073002BC8
:101E98000BD07B689B6A43F020027B689A627B6860
:101EA800002283F824200123C8E07B681B685B6854
:101EB80003F48073002B2AD17B681B68DB6A03F468
:101EC8007003002B23D11AE03B68B3F1FF3F16D013
:101ED8003B68002B07D0FFF701FE02467B69D31A47
:101EE8003A689A420BD27B689B6A43F004027B688B
:101EF8009A627B68002283F8242003239EE07B6893
:101F08001B681B6803F00203002BDDD06CE04D4B0F
:101F18001C68022002F002FE0346B4FBF3F27B6861
:101F28001B681969484B0B40002B18D17B681B684C
:101F3800D968464B0B40002B11D17B681B68196987
:101F4800434B0B40002B08D17B681B68D968414B79
:101F58000B40002B01D1142320E029231EE07B68CD
:101F68001B6819693A4B0B40002B06D17B681B682C
:101F7800D968384B0B40002B0DD07B681B6819695A
:101F8800354B0B40002B08D17B681B68D968324B56
:101F98000B40002B01D1542300E0FC2302FB03F388
:101FA8003B611DE03B68B3F1FF3F16D03B68002B57
:101FB80007D0FFF793FD02467B69D31A3A689A4225
:101FC8000BD27B689B6A43F004027B689A627B6849
:101FD800002283F82420032330E0FB680133FB60F0
:101FE800FB683A699A42DDD87B681B686FF0120279
:101FF8001A607B689B6A43F400727B689A627B680C
:102008001B689B6803F46023B3F5602F15D17B68C8
:102018001B7B002B11D17B689B6A23F480727B6841
:102028009A627B689B6A03F48053002B05D17B6816
:102038009B6A43F001027B689A62002318461C37AA
:10204800BD4690BD70010020244992242449920085
:1020580092244912922449004992240080B483B002
:1020680000AF78607B681B68DB6C18460C37BD4690
:1020780080BC704780B485B000AF786039600023B9
:10208800FB730023BB607B6893F82430012B01D1DC
:102098000223DCE07B68012283F824203B685B682C
:1020A800062B1CD87B681B68596B3B685A6813461B
:1020B8009B001344053B1F2202FA03F3DB4319403C
:1020C8003B6818683B685A6813469B001344053BF5
:1020D80000FA03F27B681B680A435A633CE03B68DA
:1020E8005B680C2B1CD87B681B68196B3B685A68AB
:1020F80013469B001344233B1F2202FA03F3DB43DE
:1021080019403B6818683B685A6813469B0013449B
:10211800233B00FA03F27B681B680A431A631BE03F
:102128007B681B68D96A3B685A6813469B0013444E
:10213800413B1F2202FA03F3DB4319403B6818684E
:102148003B685A6813469B001344413B00FA03F26C
:102158007B681B680A43DA623B681B68092B1CD939
:102168007B681B68D9683B681A6813465B00134490
:102178001E3B072202FA03F3DB4319403B689868C9
:102188003B681A6813465B0013441E3B00FA03F2CF
:102198007B681B680A43DA6019E07B681B68196969
:1021A8003B681A6813465B001344072202FA03F3DC
:1021B800DB4319403B6898683B681A6813465B0024
:1021C800134400FA03F27B681B680A431A613B68F0
:1021D8001B68102B03D03B681B68112B32D17B681E
:1021E8001B681D4A934225D17B681B689B6803F4D2
:1021F8000003002B26D17B681B689A687B681B68E4
:1022080042F400029A603B681B68102B1AD1134BEA
:102218001B68134AA2FB03239A0C13469B00134422
:102228005B00BB6002E0BB68013BBB60BB68002B86
:10223800F9D107E07B689B6A43F020027B689A62C9
:102248000123FB737B68002283F82420FB7B18465C
:102258001437BD4680BC704700240140700100203F
:1022680083DE1B4380B483B000AF78607B689B6AD1
:1022780018460C37BD4680BC7047000080B584B056
:1022880000AF78600023FB600023BB607B681B689D
:102298009B6803F00103012B39D07B681B689A689F
:1022A8007B681B6842F001029A601B4B1B681B4A43
:1022B800A2FB03239B0CBB6002E0BB68013BBB6035
:1022C800BB68002BF9D1FFF709FCF86018E0FFF7AD
:1022D80005FC0246FB68D31A022B11D97B689B6A5E
:1022E80043F010027B689A627B68DB6A43F0010264
:1022F8007B68DA627B68002283F82420012307E0E8
:102308007B681B689B6803F00103012BDFD1002366
:1023180018461037BD4680BD7001002083DE1B4380
:1023280080B584B000AF78600023FB607B681B68D1
:102338009B6803F00103012B27D17B681B689A680F
:102348007B681B6822F001029A60FFF7C7FBF86000
:1023580014E0FFF7C3FB0246FB68D31A022B0DD922
:102368007B689B6A43F010027B689A627B68DB6A31
:1023780043F001027B68DA62012307E07B681B688F
:102388009B6803F00103012BE3D0002318461037A4
:10239800BD4680BD80B485B000AF78607B6803F02F
:1023A8000703FB600C4BDB68BB60BA684FF6FF03A2
:1023B8001340BB60FB681A02BB68134343F0BF635A
:1023C80043F40033BB60044ABB68D36000BF1437D2
:1023D800BD4680BC704700BF00ED00E080B400AF90
:1023E800044BDB681B0A03F007031846BD4680BC94
:1023F800704700BF00ED00E080B483B000AF034633
:10240800FB7197F90730002B0BDBFB7903F01F02F8
:10241800064997F907305B09012000FA02F241F8F2
:10242800232000BF0C37BD4680BC704700E100E0A8
:1024380080B483B000AF03463960FB7197F9073069
:10244800002B0ADB3B68DAB20C4997F90730120116
:10245800D2B20B4483F800230AE03B68DAB2084999
:10246800FB7903F00F03043B1201D2B20B441A7636
:1024780000BF0C37BD4680BC704700BF00E100E0DC
:1024880000ED00E080B489B000AFF860B9607A6010
:10249800FB6803F00703FB61FB69C3F10703042B27
:1024A80028BF0423BB61FB690433062B02D9FB69EF
:1024B800033B00E000237B614FF0FF32BB6902FA67
:1024C80003F3DA43BB681A407B699A404FF0FF3147
:1024D8007B6901FA03F3D9437B680B401343184621
:1024E8002437BD4680BC704780B582B000AF7860A5
:1024F8007B68013BB3F1807F01D301230FE00A4AD7
:102508007B68013B53600F214FF0FF30FFF790FFCE
:10251800054B00229A60044B07221A6000231846D4
:102528000837BD4680BD00BF10E000E080B582B02E
:1025380000AF78607868FFF72DFF00BF0837BD4609
:1025480080BD80B586B000AF0346B9607A60FB7382
:1025580000237B61FFF742FF78617A68B968786980
:10256800FFF790FF024697F90F3011461846FFF71C
:102578005FFF00BF1837BD4680BD80B582B000AF91
:102588000346FB7197F907301846FFF735FF00BF80
:102598000837BD4680BD80B582B000AF78607868E6
:1025A800FFF7A2FF034618460837BD4680BD000066
:1025B80080B485B000AF78600023FB607B68002B97
:1025C80001D1012359E07B681B681A462D4B9A42BA
:1025D8000FD87B681B681A462B4B13442B4AA2FB67
:1025E80003231B099A007B681A647B68284ADA630C
:1025F8000EE07B681B681A46264B1344234AA2FB4D
:1026080003231B099A007B681A647B68224ADA63F1
:102618007B68022283F821207B681B681B68FB60AB
:10262800FB6823F47F5323F03003FB607B685A6810
:102638007B689B681A437B68DB681A437B681B6965
:102648001A437B685B691A437B689B691A437B68FA
:10265800DB691343FA681343FB607B681B68FA68FD
:102668001A607B6800229A637B68012283F8212024
:102678007B68002283F82020002318461437BD46C3
:1026880080BC704707040240F8FFFDBFCDCCCCCC1E
:1026980000000240F8FBFDBF0004024080B586B090
:1026A80000AFF860B9607A603B600023FB75FB6897
:1026B80093F82030012B01D102234AE0FB68012264
:1026C80083F82020FB6893F82130012B3AD1FB686E
:1026D800022283F82120FB6800229A63FB681B68AA
:1026E8001A68FB681B6822F001021A603B687A6866
:1026F800B968F86800F0B0FBFB68DB6A002B08D00B
:10270800FB681B681A68FB681B6842F00E021A60B7
:102718000FE0FB681B681A68FB681B6822F004025C
:102728001A60FB681B681A68FB681B6842F00A029B
:102738001A60FB681B681A68FB681B6842F0010294
:102748001A6005E0FB68002283F820200223FB754D
:10275800FB7D18461837BD4680BD80B485B000AFF4
:1027680078600023FB737B6893F82130022B08D034
:102778007B6804229A637B68002283F82020012367
:1027880020E07B681B681A687B681B6822F00E02D1
:102798001A607B681B681A687B681B6822F0010254
:1027A8001A607B681A6C7B68DB6B012101FA02F204
:1027B8005A607B68012283F821207B68002283F815
:1027C8002020FB7B18461437BD4680BC70470000AC
:1027D80080B584B000AF78600023FB737B6893F802
:1027E8002130022B05D07B6804229A630123FB73F6
:1027F800D6E07B681B681A687B681B6822F00E02AB
:102808001A607B681B681A687B681B6822F00102E3
:102818001A607B681B681A46644B9A4258D97B68D1
:102828001B68634A93424FD07B681B68614A934296
:1028380048D07B681B68604A934240D07B681B681D
:102848005E4A934238D07B681B685D4A934230D019
:102858007B681B685B4A934228D07B681B68534A95
:10286800934220D07B681B68574A934219D07B68F3
:102878001B68564A934212D07B681B68544A93429D
:102888000AD07B681B68534A934202D14FF48053A5
:102898001BE04FF4803318E04FF4807315E01023E9
:1028A80013E0012311E04FF080730EE04FF4801322
:1028B8000BE04FF4803308E04FF4805305E04FF409
:1028C800807302E0102300E00123434A536057E07D
:1028D8007B681B68364A93424FD07B681B68354A31
:1028E800934248D07B681B68334A934240D07B6848
:1028F8001B68324A934238D07B681B68304A93423F
:1029080030D07B681B682F4A934228D07B681B68AD
:10291800264A934220D07B681B682B4A934219D0E1
:102928007B681B68294A934212D07B681B68284A37
:1029380093420AD07B681B68264A934202D14FF41F
:1029480080531BE04FF4803318E04FF4807315E098
:10295800102313E0012311E04FF080730EE04FF4D1
:1029680080130BE04FF4803308E04FF4805305E008
:102978004FF4807302E0102300E00123174A5360EC
:102988007B68012283F821207B68002283F82020BD
:102998007B685B6B002B03D07B685B6B7868984720
:1029A800FB7B18461037BD4680BD00BF8000024043
:1029B800080002401C00024030000240440002406F
:1029C800580002406C000240080402401C04024007
:1029D8003004024044040240000402400000024067
:1029E80080B584B000AF78607B68DB6B1B68FB60E8
:1029F8007B681B681B68BB607B681B6C04229A4061
:102A0800FB681340002B00F0D680BB6803F004037A
:102A1800002B00F0D0807B681B681B6803F0200344
:102A2800002B07D17B681B681A687B681B6822F03B
:102A380004021A607B681B681A469B4B9A4258D955
:102A48007B681B68994A93424FD07B681B68984AF9
:102A5800934248D07B681B68964A934240D07B6873
:102A68001B68954A934238D07B681B68934A934207
:102A780030D07B681B68924A934228D07B681B68D9
:102A8800894A934220D07B681B688E4A934219D0AA
:102A98007B681B688C4A934212D07B681B688B4A00
:102AA80093420AD07B681B68894A934202D14FF44B
:102AB80080431BE04FF4802318E04FF4806315E057
:102AC800402313E0042311E04FF080630EE04FF43D
:102AD80080030BE04FF4802308E04FF4804305E0C7
:102AE8004FF4806302E0402300E00423794A5360F6
:102AF80057E07B681B686D4A93424FD07B681B6820
:102B08006B4A934248D07B681B686A4A934240D01C
:102B18007B681B68684A934238D07B681B68674AA1
:102B2800934230D07B681B68654A934228D07B6803
:102B38001B685D4A934220D07B681B68614A9342B8
:102B480019D07B681B68604A934212D07B681B6867
:102B58005E4A93420AD07B681B685D4A934202D161
:102B68004FF480431BE04FF4802318E04FF4806358
:102B780015E0402313E0042311E04FF080630EE0DA
:102B88004FF480030BE04FF4802308E04FF48043B8
:102B980005E04FF4806302E0402300E004234E4A3E
:102BA80053607B68DB6A002B00F036817B68DB6A48
:102BB8007868984730E17B681B6C02229A40FB6872
:102BC8001340002B00F0F880BB6803F00203002BD1
:102BD80000F0F2807B681B681B6803F02003002B61
:102BE8000BD17B681B681A687B681B6822F00A0295
:102BF8001A607B68012283F821207B681B681A46CB
:102C0800294B9A4273D97B681B68284A93426AD039
:102C18007B681B68264A934263D07B681B68254AF9
:102C280093425BD07B681B68234A934238D07B6809
:102C38001B68224A934230D07B681B68204A934223
:102C480028D07B681B68184A934220D07B681B6891
:102C58001C4A934219D07B681B681B4A934212D0C6
:102C68007B681B68194A93420AD07B681B68184A1C
:102C7800934202D14FF4005336E04FF4003333E06F
:102C88004FF4007330E020232EE002232CE04FF0B5
:102C9800007329E04FF4001326E04FF4003323E0DB
:102CA8004FF4005320E000BF8000024008000240BB
:102CB8001C0002403000024044000240580002401C
:102CC8006C000240080402401C0402403004024028
:102CD8004404024000040240000002404FF4007324
:102CE80002E0202300E002234E4A536057E07B684D
:102CF8001B684D4A93424FD07B681B684B4A9342EE
:102D080048D07B681B684A4A934240D07B681B685E
:102D1800484A934238D07B681B68474A934230D070
:102D28007B681B68454A934228D07B681B68444AE5
:102D3800934220D07B681B68424A934219D07B6833
:102D48001B68414A934212D07B681B683F4A9342F2
:102D58000AD07B681B683E4A934202D14FF4005365
:102D68001BE04FF4003318E04FF4007315E0202304
:102D780013E0022311E04FF000730EE04FF400134C
:102D88000BE04FF4003308E04FF4005305E04FF434
:102D9800007302E0202300E002232E4A53607B6880
:102DA800002283F820207B689B6A002B34D07B6844
:102DB8009B6A786898472FE07B681B6C08229A40CA
:102DC800FB681340002B28D0BB6803F00803002BD6
:102DD80023D07B681B681A687B681B6822F00E0288
:102DE8001A607B681A6C7B68DB6B012101FA02F2BE
:102DF8005A607B6801229A637B68012283F821204C
:102E08007B68002283F820207B681B6B002B04D092
:102E18007B681B6B7868984700BF00BF1037BD46BA
:102E280080BD00BF00040240080002401C000240B0
:102E38003000024044000240580002406C0002404A
:102E480080000240080402401C0402403004024092
:102E5800440402400000024080B485B000AFF8602E
:102E6800B9607A603B60FB681A6CFB68DB6B012118
:102E780001FA02F25A60FB681B683A685A60FB68FC
:102E88005B68102B08D1FB681B687A689A60FB683E
:102E98001B68BA68DA6007E0FB681B68BA689A6062
:102EA800FB681B687A68DA6000BF1437BD4680BCCF
:102EB8007047000080B48BB000AF786039600023A1
:102EC8007B6200233B6279E101227B6A02FA03F309
:102ED800FB613B681B68FA691340BB61BA69FB690F
:102EE8009A4240F068813B685B68A04A93425ED092
:102EF8009E4A934275D89E4A934258D09C4A934220
:102F08006FD89C4A934252D09A4A934269D89A4AB7
:102F180093424CD0984A934263D8984A934246D0F9
:102F2800964A93425DD8122B2AD8122B59D801A25F
:102F380052F823F0B72F0008912F0008A32F00089C
:102F4800E52F0008EB2F0008EB2F0008EB2F0008F7
:102F5800EB2F0008EB2F0008EB2F0008EB2F0008E1
:102F6800EB2F0008EB2F0008EB2F0008EB2F0008D1
:102F7800EB2F0008EB2F0008992F0008AD2F000851
:102F88007F4A934213D02CE03B68DB683B6229E020
:102F98003B68DB6804333B6224E03B68DB6808334A
:102FA8003B621FE03B68DB680C333B621AE03B681E
:102FB8009B68002B02D104233B6213E03B689B68AB
:102FC800012B05D108233B627B68FA691A6109E085
:102FD80008233B627B68FA695A6103E000233B627D
:102FE80000E000BFBB69FF2B01D87B6801E07B686C
:102FF80004337B61BB69FF2B02D87B6A9B0002E02C
:103008007B6A083B9B003B617B691A680F213B691F
:1030180001FA03F3DB431A40396A3B6901FA03F307
:103028001A437B691A603B685B6803F08053002B86
:1030380000F0C180534B9B69524A43F001039361EE
:10304800504B9B6903F00103BB60BB684E4A7B6A27
:103058009B08023352F82330FB607B6A03F00303BA
:103068009B000F2202FA03F3DB43FA681340FB606C
:103078007B68464A93421FD07B68454A934219D0E1
:103088007B68444A934213D07B68434A93420DD0ED
:103098007B68424A934207D07B68414A934201D1F8
:1030A80005230AE0062308E0042306E0032304E0DE
:1030B800022302E0012300E000237A6A02F00302FF
:1030C80092009340FA681343FB602F497B6A9B0880
:1030D8000233FA6841F823203B685B6803F48033C5
:1030E800002B06D02F4B1A682E49BB6913430B607F
:1030F80006E02C4B1A68BB69DB432A4913400B6076
:103108003B685B6803F40033002B06D0254B5A68F4
:103118002449BB6913434B6006E0224B5A68BB69DC
:10312800DB43204913404B603B685B6803F4801322
:10313800002B06D01B4B9A681A49BB6913438B6056
:1031480006E0184B9A68BB69DB43164913408B604D
:103158003B685B6803F40013002B25D0114BDA6839
:103168001049BB691343CB6025E000BF0000321053
:103178000000311000002210000021100000121081
:10318800000011100010024000000140000801403A
:10319800000C0140001001400014014000180140DB
:1031A800001C0140000401400B4BDA68BB69DB439B
:1031B80009491340CB607B6A01337B623B681A681C
:1031C8007B6A22FA03F3002B7FF47EAE00BF00BFB8
:1031D8002C37BD4680BC70470004014080B485B0E0
:1031E80000AF78600B467B807B689A687B881340C9
:1031F800002B02D00123FB7301E00023FB73FB7B50
:1032080018461437BD4680BC704780B483B000AF01
:1032180078600B467B8013467B707B78002B03D04D
:103228007A887B681A6103E07B881A047B681A61D4
:1032380000BF0C37BD4680BC7047000080B584B025
:1032480000AF78607B68002B01D101231BE17B680C
:1032580093F83D30DBB2002B06D17B68002283F85F
:103268003C20786809F0BAFF7B68242283F83D2067
:103278007B681B681A687B681B6822F001021A6069
:1032880001F050FBF8607B685B68814A934207D87D
:10329800FB68804A934294BF01230023DBB206E017
:1032A800FB687D4A934294BF01230023DBB2002BC5
:1032B80001D00123E7E0FB68784AA2FB03239B0CBB
:1032C800BB607B681B685B6823F03F017B681B68F9
:1032D800BA680A435A607B681B681B6A23F03F017F
:1032E8007B685B686A4A934202D8BB68013309E08D
:1032F800BB684FF4967202FB03F3694AA2FB0323EF
:103308009B0901337A6812680B4313627B681B6858
:10331800DB6923F44F4222F0FF027B685B685C495B
:103328008B4219D8FB68591E7B685B685B00B1FB50
:10333800F3F3591C40F6FC730B40002B0AD0FB68D2
:10334800591E7B685B685B00B1FBF3F30133C3F381
:103358000B0351E004234FE07B689B68002B11D1DD
:10336800FB68581E7B6859680B465B000B44B0FB32
:10337800F3F30133C3F30B03002B0CBF012300232A
:10338800DBB212E0FB68581E7B6859680B469B004D
:103398000B4499000B44B0FBF3F30133C3F30B0365
:1033A800002B0CBF01230023DBB2002B01D001232B
:1033B80022E07B689B68002B0ED1FB68581E7B6857
:1033C80059680B465B000B44B0FBF3F30133C3F3BE
:1033D8000B0343F400430FE0FB68581E7B685968F1
:1033E8000B469B000B4499000B44B0FBF3F30133ED
:1033F800C3F30B0343F44043796809681343CB6173
:103408007B681B681B6823F0C0017B68DA697B68EE
:103418001B6A1A437B681B680A431A607B681B682F
:103428009B6823F4034323F0FF037A6811697A68E1
:10343800D26811437A6812680B4393607B681B68F3
:10344800DB6823F0FF017B685A697B689B691A4334
:103458007B681B680A43DA607B681B681A687B68AC
:103468001B6842F001021A607B6800221A647B68BC
:10347800202283F83D207B6800221A637B680022A3
:1034880083F83E20002318461037BD4680BD00BF94
:10349800A08601007F841E00FF083D0083DE1B43D9
:1034A800D34D621080B588B002AFF8600846114667
:1034B8001A4603467B810B463B811346FB80FEF789
:1034C8000DFB7861FB6893F83D30DBB2202B40F0B0
:1034D800D9807B690093192301226D49F86800F0AF
:1034E80071FC0346002B01D00223CCE0FB6893F863
:1034F8003C30012B01D10223C5E0FB68012283F88F
:103508003C20FB681B681B6803F00103012B07D0F4
:10351800FB681B681A68FB681B6842F001021A60A6
:10352800FB681B681A68FB681B6822F400621A6053
:10353800FB68212283F83D20FB68402283F83E2067
:10354800FB6800221A64FB683A6A5A62FB68BA8C04
:103558005A85FB685B8D9AB2FB681A85FB684D4AF1
:10356800DA62F8883A8979897B690193BB6A0093A2
:103578000346F86800F0CCFA0346002B52D001232A
:1035880081E07A69B96AF86800F0F2FC0346002B1A
:103598000DD0FB681B6C042B07D1FB681B681A68ED
:1035A800FB681B6842F400721A6001236BE0FB6839
:1035B8005B6A1A78FB681B681A61FB685B6A5A1CAD
:1035C800FB685A62FB681B8D013B9AB2FB681A853F
:1035D800FB685B8D9BB2013B9AB2FB685A85FB681E
:1035E8001B685B6903F00403042B1BD1FB681B8D6C
:1035F800002B17D0FB685B6A1A78FB681B681A6196
:10360800FB685B6A5A1CFB685A62FB681B8D013BAE
:103618009AB2FB681A85FB685B8D9BB2013B9AB234
:10362800FB685A85FB681B8D002BAAD17A69B96A99
:10363800F86800F0DEFC0346002B0DD0FB681B6C1D
:10364800042B07D1FB681B681A68FB681B6842F4E7
:1036580000721A60012316E0FB681B681A68FB6891
:103668001B6842F400721A60FB68202283F83D2030
:10367800FB68002283F83E20FB68002283F83C2088
:10368800002300E0022318461837BD4680BD00BF5E
:10369800020010000000FFFF80B58CB002AFF86098
:1036A800084611461A4603467B810B463B81134662
:1036B800FB80FEF713FA7862FB6893F83D30DBB2C3
:1036C800202B40F01E827B6A009319230122824935
:1036D800F86800F077FB0346002B01D0022311E2C3
:1036E800FB6893F83C30012B01D102230AE2FB6806
:1036F800012283F83C20FB681B681B6803F0010368
:10370800012B07D0FB681B681A68FB681B6842F02E
:1037180001021A60FB681B681A68FB681B6822F4C0
:1037280000621A60FB68222283F83D20FB68402271
:1037380083F83E20FB6800221A64FB683A6B5A62E1
:10374800FB68BA8E5A85FB685B8D9AB2FB681A854E
:10375800FB68624ADA62F8883A8979897B6A019358
:10376800BB6B00930346F86800F05CFA0346002B35
:1037780001D00123C6E1FB681B8D002B13D1002368
:103788003B62FB681B685B693B62FB681B689B6963
:103798003B623B6AFB681B681A68FB681B6842F45B
:1037A80000721A609AE1FB681B8D012B1ED1FB6821
:1037B8001B681A68FB681B6822F480621A6072B67C
:1037C80000BF0023FB61FB681B685B69FB61FB684A
:1037D8001B689B69FB61FB69FB681B681A68FB68CF
:1037E8001B6842F400721A6062B635E0FB681B8DF4
:1037F800022B1ED1FB681B681A68FB681B6842F421
:1038080000621A6072B600BF0023BB61FB681B68C8
:103818005B69BB61FB681B689B69BB61BB69FB6833
:103828001B681A68FB681B6822F480621A6062B61B
:1038380012E0FB681B681A68FB681B6842F4806228
:103848001A6000237B61FB681B685B697B61FB680E
:103858001B689B697B617B6940E1FB681B8D032BBF
:1038680000F2F980FB681B8D012B23D17A6AB96BB2
:10387800F86800F0FFFB0346002B01D0012341E16B
:10388800FB681B681A69FB685B6AD2B21A70FB682E
:103898005B6A5A1CFB685A62FB681B8D013B9AB233
:1038A800FB681A85FB685B8D9BB2013B9AB2FB688B
:1038B8005A8513E1FB681B8D022B52D17B6A00935A
:1038C800BB6B00220649F86800F07CFA0346002B1F
:1038D80008D0012316E100BF020010000000FFFF1E
:1038E8000400010072B600BFFB681B681A68FB6819
:1038F8001B6842F400721A60FB681B681A69FB684F
:103908005B6AD2B21A70FB685B6A5A1CFB685A621F
:10391800FB681B8D013B9AB2FB681A85FB685B8DBF
:103928009BB2013B9AB2FB685A8562B600BFFB683E
:103938001B681A69FB685B6AD2B21A70FB685B6A1B
:103948005A1CFB685A62FB681B8D013B9AB2FB68E4
:103958001A85FB685B8D9BB2013B9AB2FB685A855E
:10396800BCE07B6A0093BB6B00226849F86800F0F2
:1039780029FA0346002B01D00123C3E0FB681B682A
:103988001A68FB681B6822F480621A6072B600BF6E
:10399800FB681B681A69FB685B6AD2B21A70FB681D
:1039A8005B6A5A1CFB685A62FB681B8D013B9AB222
:1039B800FB681A85FB685B8D9BB2013B9AB2FB687A
:1039C8005A857B6A0093BB6B00225049F86800F067
:1039D800F9F90346002B01D0012393E0FB681B682B
:1039E8001A68FB681B6842F400721A60FB681B685F
:1039F8001A69FB685B6AD2B21A70FB685B6A5A1C68
:103A0800FB685A62FB681B8D013B9AB2FB681A85FA
:103A1800FB685B8D9BB2013B9AB2FB685A8562B624
:103A280000BFFB681B681A69FB685B6AD2B21A7030
:103A3800FB685B6A5A1CFB685A62FB681B8D013B7A
:103A48009AB2FB681A85FB685B8D9BB2013B9AB200
:103A5800FB685A8542E07A6AB96BF86800F00AFB9D
:103A68000346002B01D001234CE0FB681B681A6950
:103A7800FB685B6AD2B21A70FB685B6A5A1CFB6807
:103A88005A62FB681B8D013B9AB2FB681A85FB687A
:103A98005B8D9BB2013B9AB2FB685A85FB681B6839
:103AA8005B6903F00403042B18D1FB681B681A69CF
:103AB800FB685B6AD2B21A70FB685B6A5A1CFB68C7
:103AC8005A62FB681B8D013B9AB2FB681A85FB683A
:103AD8005B8D9BB2013B9AB2FB685A85FB681B8DD4
:103AE800002B7FF4BAAEFB68202283F83D20FB68E8
:103AF800002283F83E20FB68002283F83C20002344
:103B080000E0022318462837BD4680BD04000100A6
:103B180080B588B002AFF860084611461A460346D9
:103B28007B810B463B811346FB80FB681B681A6848
:103B3800FB681B6842F480721A607B6A00933B6AD8
:103B480000224FF00111F86800F03CF90346002B01
:103B580001D001235FE07B89DBB21A46FB681B6852
:103B680002F0FE021A617B6A3A6A2D49F86800F091
:103B780080F90346002B01D001234CE000237B6130
:103B8800FB681B685B697B61FB681B689B697B61E1
:103B98007B697A6A396AF86800F0EAF90346002B0B
:103BA8000DD0FB681B6C042B07D1FB681B681A68D7
:103BB800FB681B6842F400721A6001232BE0FB8843
:103BC800012B05D13B89DAB2FB681B681A6121E039
:103BD8003B891B0A9BB2DAB2FB681B681A617A6AD6
:103BE800396AF86800F0C4F90346002B0DD0FB6869
:103BF8001B6C042B07D1FB681B681A68FB681B68E1
:103C080042F400721A60012305E03B89DAB2FB68CE
:103C18001B681A61002318461837BD4680BD00BFCF
:103C28000200010080B588B002AFF860084611466E
:103C38001A4603467B810B463B811346FB80FB6893
:103C48001B681A68FB681B6842F480621A60FB688C
:103C58001B681A68FB681B6842F480721A607B6AEA
:103C680000933B6A00224FF00111F86800F0AAF8AF
:103C78000346002B01D001239EE07B89DBB21A4664
:103C8800FB681B6802F0FE021A617B6A3A6A4C49BB
:103C9800F86800F0EEF80346002B01D001238BE012
:103CA80000237B61FB681B685B697B61FB681B68A1
:103CB8009B697B617B697A6A396AF86800F058F910
:103CC8000346002B0DD0FB681B6C042B07D1FB6847
:103CD8001B681A68FB681B6842F400721A600123AB
:103CE8006AE0FB88012B05D13B89DAB2FB681B68C7
:103CF8001A6121E03B891B0A9BB2DAB2FB681B6898
:103D08001A617A6A396AF86800F032F90346002BBA
:103D18000DD0FB681B6C042B07D1FB681B681A6865
:103D2800FB681B6842F400721A60012344E03B8977
:103D3800DAB2FB681B681A617A6A396AF86800F0B7
:103D480017F90346002B0DD0FB681B6C042B07D119
:103D5800FB681B681A68FB681B6842F400721A60EB
:103D6800012329E0FB681B681A68FB681B6842F49A
:103D780080721A607B6A00933B6A00224FF001113F
:103D8800F86800F01FF80346002B01D0012313E068
:103D98007B89DBB243F00103DAB2FB681B681A6166
:103DA8007B6A3A6A0649F86800F063F80346002B14
:103DB80001D0012300E0002318461837BD4680BD16
:103DC8000200010080B584B000AFF860B9603B60C4
:103DD8001346FB7125E03B68B3F1FF3F21D0FDF7A7
:103DE8007DFE0246BB69D31A3A689A4202D33B6801
:103DF800002B16D1FB6800221A63FB68202283F887
:103E08003D20FB68002283F83E20FB681B6C43F0D2
:103E18002002FB681A64FB68002283F83C20012317
:103E280023E0BB681B0CDBB2012B0DD1FB681B68C0
:103E38005B69DA43BB6813409BB2002B0CBF0123BC
:103E48000023DBB21A460CE0FB681B689B69DA4367
:103E5800BB6813409BB2002B0CBF01230023DBB2CD
:103E68001A46FB799A42B6D0002318461037BD4649
:103E780080BD80B584B000AFF860B9607A603B60FF
:103E880051E0FB681B685B6903F48063B3F5806FDE
:103E980023D1FB681B681A68FB681B6842F4007230
:103EA8001A60FB681B686FF480625A61FB68002225
:103EB8001A63FB68202283F83D20FB68002283F800
:103EC8003E20FB681B6C43F00402FB681A64FB6825
:103ED800002283F83C20012346E07B68B3F1FF3FD2
:103EE80021D0FDF7FBFD02463B68D31A7A689A4257
:103EF80002D37B68002B16D1FB6800221A63FB688B
:103F0800202283F83D20FB68002283F83E20FB68CE
:103F18001B6C43F02002FB681A64FB68002283F8DC
:103F28003C20012320E0BB681B0CDBB2012B0CD129
:103F3800FB681B685B69DA43BB6813409BB2002BC4
:103F480014BF01230023DBB20BE0FB681B689B69ED
:103F5800DA43BB6813409BB2002B14BF0123002334
:103F6800DBB2002B8DD1002318461037BD4680BD2B
:103F780080B584B000AFF860B9607A602DE0F86869
:103F880000F0CEF80346002B01D001232DE0BB68DA
:103F9800B3F1FF3F21D0FDF7A1FD02467B68D31A9C
:103FA800BA689A4202D3BB68002B16D1FB6800227C
:103FB8001A63FB68202283F83D20FB68002283F8FF
:103FC8003E20FB681B6C43F02002FB681A64FB6808
:103FD800002283F83C20012307E0FB681B685B692B
:103FE80003F08003802BCAD1002318461037BD4642
:103FF80080BD80B584B000AFF860B9607A602DE00C
:10400800F86800F08DF80346002B01D001232DE05D
:10401800BB68B3F1FF3F21D0FDF760FD02467B6826
:10402800D31ABA689A4202D3BB68002B16D1FB6830
:1040380000221A63FB68202283F83D20FB680022D7
:1040480083F83E20FB681B6C43F02002FB681A646F
:10405800FB68002283F83C20012307E0FB681B680B
:104068005B6903F00403042BCAD1002318461037F8
:10407800BD4680BD80B584B000AFF860B9607A6095
:1040880042E0FB681B685B6903F01003102B19D131
:10409800FB681B686FF010025A61FB6800221A6304
:1040A800FB68202283F83D20FB68002283F83E202D
:1040B800FB681A6CFB681A64FB68002283F83C20D2
:1040C800012329E0FDF70AFD02467B68D31ABA6886
:1040D8009A4202D3BB68002B16D1FB6800221A63F0
:1040E800FB68202283F83D20FB68002283F83E20ED
:1040F800FB681B6C43F02002FB681A64FB68002213
:1041080083F83C20012307E0FB681B685B6903F028
:104118004003402BB5D1002318461037BD4680BD5B
:1041280080B483B000AF78607B681B685B6903F478
:104138008063B3F5806F1BD17B681B686FF4806266
:104148005A617B6800221A637B68202283F83D202D
:104158007B68002283F83E207B681B6C43F00402D6
:104168007B681A647B68002283F83C20012300E006
:10417800002318460C37BD4680BC704780B586B012
:1041880000AF78607B68002B01D101236CE27B686B
:104198001B6803F00103002B00F08780924B5B68DB
:1041A80003F00C03042B0CD08F4B5B6803F00C035B
:1041B800082B12D18C4B5B6803F48033B3F5803F36
:1041C8000BD1894B1B6803F40033002B6CD07B6840
:1041D8005B68002B68D1012346E27B685B68B3F516
:1041E800803F06D1804B1B687F4A43F480331360BD
:1041F8002EE07B685B68002B0CD17B4B1B687A4AEE
:1042080023F480331360784B1B68774A23F48023A8
:1042180013601DE07B685B68B3F5A02F0CD1724B6F
:104228001B68714A43F4802313606F4B1B686E4A06
:1042380043F4803313600BE06B4B1B686A4A23F42A
:1042480080331360684B1B68674A23F4802313602C
:104258007B685B68002B13D0FDF740FC386108E0F1
:10426800FDF73CFC02463B69D31A642B01D90323B2
:10427800FAE15D4B1B6803F40033002BF0D014E027
:10428800FDF72CFC386108E0FDF728FC02463B6985
:10429800D31A642B01D90323E6E1534B1B6803F4BB
:1042A8000033002BF0D100E000BF7B681B6803F0EF
:1042B8000203002B63D04C4B5B6803F00C03002B0C
:1042C8000BD0494B5B6803F00C03082B1CD1464B01
:1042D8005B6803F48033002B16D1434B1B6803F053
:1042E8000203002B05D07B681B69012B01D0012339
:1042F800BAE13D4B1B6823F0F8027B685B69DB0081
:10430800394913430B603AE07B681B69002B20D0C6
:10431800364B01221A60FDF7E1FB386108E0FDF732
:10432800DDFB02463B69D31A022B01D903239BE12B
:104338002D4B1B6803F00203002BF0D02A4B1B689F
:1043480023F0F8027B685B69DB00274913430B60A5
:1043580015E0264B00221A60FDF7C0FB386108E023
:10436800FDF7BCFB02463B69D31A022B01D9032394
:104378007AE11D4B1B6803F00203002BF0D17B6828
:104388001B6803F00803002B3AD07B689B69002B5D
:1043980019D0174B01221A60FDF7A0FB386108E01D
:1043A800FDF79CFB02463B69D31A022B01D9032374
:1043B8005AE10D4B5B6A03F00203002BF0D0012099
:1043C80000F0D8FA1CE00A4B00221A60FDF786FBC1
:1043D80038610FE0FDF782FB02463B69D31A022BD6
:1043E80008D9032340E100BF001002400000424208
:1043F800800442429E4B5B6A03F00203002BE9D122
:104408007B681B6803F00403002B00F0A6800023E0
:10441800FB75974BDB6903F08053002B0DD1944B50
:10442800DB69934A43F08053D361914BDB6903F016
:104438008053BB60BB680123FB758E4B1B6803F47C
:104448008073002B18D18B4B1B688A4A43F4807306
:104458001360FDF743FB386108E0FDF73FFB0246B8
:104468003B69D31A642B01D90323FDE0814B1B68F8
:1044780003F48073002BF0D07B68DB68012B06D136
:104488007B4B1B6A7A4A43F0010313622DE07B6879
:10449800DB68002B0CD1764B1B6A754A23F00103AD
:1044A8001362734B1B6A724A23F0040313621CE005
:1044B8007B68DB68052B0CD16D4B1B6A6C4A43F09B
:1044C800040313626A4B1B6A694A43F001031362CF
:1044D8000BE0674B1B6A664A23F001031362644BC7
:1044E8001B6A634A23F0040313627B68DB68002BB2
:1044F80015D0FDF7F3FA38610AE0FDF7EFFA024646
:104508003B69D31A41F28832934201D90323ABE0C5
:10451800574B1B6A03F00203002BEED014E0FDF7A3
:10452800DDFA38610AE0FDF7D9FA02463B69D31A89
:1045380041F28832934201D9032395E04C4B1B6A20
:1045480003F00203002BEED1FB7D012B05D1484B74
:10455800DB69474A23F08053D3617B68DB69002B12
:1045680000F08180424B5B6803F00C03082B61D09C
:104578007B68DB69022B46D13F4B00221A60FDF7AE
:10458800ADFA386108E0FDF7A9FA02463B69D31A8B
:10459800022B01D9032367E0354B1B6803F0007336
:1045A800002BF0D17B681B6AB3F5803F08D1304BF4
:1045B8005B6823F400327B689B682D4913434B608A
:1045C8002B4B5B6823F474127B68196A7B685B6AFF
:1045D8000B43274913434B60274B01221A60FDF711
:1045E8007DFA386108E0FDF779FA02463B69D31A8B
:1045F800022B01D9032337E01D4B1B6803F000731E
:10460800002BF0D02FE01C4B00221A60FDF766FA51
:10461800386108E0FDF762FA02463B69D31A022BBB
:1046280001D9032320E0124B1B6803F00073002B11
:10463800F0D118E07B68DB69012B01D1012313E07D
:104648000B4B5B68FB60FB6803F480327B681B6A7A
:104658009A4206D1FB6803F470127B685B6A9A423F
:1046680001D0012300E0002318461837BD4680BD5D
:1046780000100240007000406000424280B584B0E3
:1046880000AF786039607B68002B01D10123D0E04E
:104698006A4B1B6803F007033A689A4210D9674BC4
:1046A8001B6823F0070265493B6813430B60634BA3
:1046B8001B6803F007033A689A4201D00123B8E067
:1046C8007B681B6803F00203002B20D07B681B6803
:1046D80003F00403002B05D0594B5B68584A43F498
:1046E800E06353607B681B6803F00803002B05D068
:1046F800534B5B68524A43F460535360504B5B68BA
:1047080023F0F0027B689B684D4913434B607B683C
:104718001B6803F00103002B40D07B685B68012B0A
:1047280007D1474B1B6803F40033002B15D1012335
:104738007FE07B685B68022B07D1414B1B6803F065
:104748000073002B09D1012373E03D4B1B6803F074
:104758000203002B01D101236BE0394B5B6823F086
:1047680003027B685B68364913434B60FDF7B6F973
:10477800F8600AE0FDF7B2F90246FB68D31A41F285
:104788008832934201D9032353E02D4B5B6803F031
:104798000C027B685B689B009A42EBD1274B1B6835
:1047A80003F007033A689A4210D2244B1B6823F09F
:1047B800070222493B6813430B60204B1B6803F038
:1047C80007033A689A4201D0012332E07B681B68EC
:1047D80003F00403002B08D0194B5B6823F4E06254
:1047E8007B68DB68164913434B607B681B6803F0E2
:1047F8000803002B09D0124B5B6823F460527B68D6
:104808001B69DB000E4913434B6000F021F8024698
:104818000B4B5B681B0903F00F030A49CB5C22FAB8
:1048280003F3094A1360094B1B681846FDF714F98E
:10483800002318461037BD4680BD00BF0020024047
:1048480000100240283801087001002004000020F0
:1048580090B48AB000AF2A4B3C1D0FCB84E80F0000
:1048680040F201233B800023FB610023BB6100234E
:104878007B6200237B6100233B62224B5B68FB6108
:10488800FB6903F00C03042B02D0082B03D02DE0A6
:104898001D4B3B622DE0FB699B0C03F00F0307F1F6
:1048A8002802134413F8243C7B61FB6903F480332A
:1048B800002B13D0134B5B685B0C03F0010307F16B
:1048C8002802134413F8283CBB617B690E4A02FB9B
:1048D80003F2BB69B2FBF3F37B6204E07B690B4A2A
:1048E80002FB03F37B627B6A3B6202E0064B3B629E
:1048F80000BF3B6A18462837BD4690BC704700BFCA
:10490800802A01080010024000127A0000093D00C8
:1049180080B400AF024B1B681846BD4680BC704788
:104928007001002080B500AFFFF7F2FF0246054B8B
:104938005B681B0A03F007030349CB5C22FA03F305
:10494800184680BD001002403838010880B500AF15
:10495800FFF7DEFF0246054B5B68DB0A03F007033F
:104968000349CB5C22FA03F3184680BD00100240CD
:104978003838010880B485B000AF78600A4B1B68EE
:104988000A4AA2FB03235B0A7A6802FB03F3FB6073
:1049980000BFFB685A1EFA60002BF9D100BF00BFA8
:1049A8001437BD4680BC704770010020D34D62109B
:1049B80080B586B000AF786000233B610023FB60C0
:1049C8007B681B6803F00103002B7DD00023FB7577
:1049D8004F4BDB6903F08053002B0DD14C4BDB6947
:1049E8004B4A43F08053D361494BDB6903F0805352
:1049F800BB60BB680123FB75464B1B6803F48073DF
:104A0800002B18D1434B1B68424A43F48073136050
:104A1800FDF764F8386108E0FDF760F802463B6985
:104A2800D31A642B01D903236DE03A4B1B6803F4B6
:104A38008073002BF0D0364B1B6A03F44073FB6085
:104A4800FB68002B2ED07B685B6803F44073FA6820
:104A58009A4227D02E4B1B6A23F44073FB602E4BDF
:104A680001221A602C4B00221A60294AFB68136243
:104A7800FB6803F00103002B14D0FDF72FF8386111
:104A88000AE0FDF72BF802463B69D31A41F2883257
:104A9800934201D9032336E01D4B1B6A03F002033E
:104AA800002BEED01A4B1B6A23F440727B685B68BC
:104AB800174913430B62FB7D012B05D1144BDB69AE
:104AC800134A23F08053D3617B681B6803F0020309
:104AD800002B08D00E4B5B6823F440427B689B6830
:104AE8000B4913434B607B681B6803F01003002BD2
:104AF80008D0074B5B6823F480027B685B69044934
:104B080013434B60002318461837BD4680BD00BFCD
:104B180000100240007000404004424290B58DB041
:104B280000AF78606B4B07F10C040FCB84E80F00E3
:104B380040F201233B8100237B620023FB620023B8
:104B48003B620023FB610023BB627B68013B0F2BA8
:104B580000F2B68001A252F823F000BF474C0008CB
:104B6800AD4C0008C94C0008374C0008C94C000877
:104B7800C94C0008C94C00083F4C0008C94C000843
:104B8800C94C0008C94C0008C94C0008C94C0008A9
:104B9800C94C0008C94C0008A54B00084E4B5B687F
:104BA800FB614D4B1B6803F08073002B00F08A807B
:104BB800FB699B0C03F00F0307F13002134413F851
:104BC800243C3B62FB6903F48033002B18D0424B32
:104BD8005B685B0C03F0010307F13002134413F820
:104BE800283C7B62FB6903F48033002B0DD03B4AE1
:104BF8007B6AB2FBF3F23B6A02FB03F3FB6204E05D
:104C08003B6A374A02FB03F3FB62334B5B6803F4EE
:104C18008003B3F5800F02D1FB6ABB6252E0FB6AE6
:104C28005B00304AA2FB03235B08BB624AE0FFF744
:104C38000FFEB86249E0FFF70BFEB86245E0264B6D
:104C48001B6AFB61FB6903F44073B3F5807F08D1ED
:104C5800FB6903F00203002B03D04FF40043BB624F
:104C68001FE0FB6903F44073B3F5007F09D11A4BC9
:104C78005B6A03F00203002B03D049F64043BB6292
:104C88000FE0FB6903F44073B3F5407F1CD1124B6E
:104C98001B6803F40033002B16D04FF22443BB6289
:104CA80012E011E0FFF752FE02460B4B5B689B0BCC
:104CB80003F0030301335B00B2FBF3F3BB6204E0D0
:104CC80000BF02E000BF00E000BFBB6A18463437EF
:104CD800BD4690BD902A01080010024000127A00DB
:104CE80000093D00ABAAAAAA80B582B000AF7860DF
:104CF8007B68002B01D101231DE07B6893F83D30D0
:104D0800DBB2002B06D17B68002283F83C20786850
:104D180009F0D2F87B68022283F83D207B681A6884
:104D28007B6804331946104600F0A4FA7B68012218
:104D380083F83D20002318460837BD4680BD80B45F
:104D480085B000AF78607B68022283F83D207B68DD
:104D58001B689B6803F00703FB60FB68062B07D002
:104D68007B681B681A687B681B6842F001021A603E
:104D78007B68012283F83D20002318461437BD467E
:104D880080BC704780B483B000AF78607B68022233
:104D980083F83D207B681B681A6A41F2111313409F
:104DA800002B0FD17B681B681A6A40F244431340FA
:104DB800002B07D17B681B681A687B681B6822F088
:104DC80001021A607B68012283F83D2000231846FF
:104DD8000C37BD4680BC704780B582B000AF7860A4
:104DE8007B68002B01D101231DE07B6893F83D30DF
:104DF800DBB2002B06D17B68002283F83C20786860
:104E080008F038FF7B68022283F83D207B681A6827
:104E18007B6804331946104600F02CFA7B6801229F
:104E280083F83D20002318460837BD4680BD0000A2
:104E380080B584B000AF786039607B681B68012258
:104E48003968184600F03CFC7B681B68154A934299
:104E580004D07B681B68144A934201D1012300E007
:104E68000023002B07D07B681B685A6C7B681B6883
:104E780042F400425A647B681B689B6803F007038E
:104E8800FB60FB68062B07D07B681B681A687B6889
:104E98001B6842F001021A60002318461037BD460D
:104EA80080BD00BF002C01400034014080B582B0B5
:104EB80000AF786039607B681B6800223968184643
:104EC80000F0FEFB7B681B68224A934204D07B6893
:104ED8001B68214A934201D1012300E00023002BE3
:104EE80017D07B681B681A6A41F211131340002B14
:104EF8000FD17B681B681A6A40F244431340002BA9
:104F080007D17B681B685A6C7B681B6822F40042D7
:104F18005A647B681B681A6A41F211131340002B0C
:104F28000FD17B681B681A6A40F244431340002B78
:104F380007D17B681B681A687B681B6822F001022E
:104F48001A607B68012283F83D2000231846083741
:104F5800BD4680BD002C01400034014080B586B0BC
:104F680000AF786039607B68002B01D101237FE0B6
:104F78007B6893F83D30DBB2002B06D17B680022BA
:104F880083F83C20786808F0A7FE7B68022283F843
:104F98003D207B681B689B687A68126823F480430D
:104FA80023F0070393607B681A687B68043319460B
:104FB800104600F05FF97B681B689B687B617B6823
:104FC8001B689B693B617B681B681B6AFB603B68CD
:104FD8001B687A6913437B613B6923F4407323F0B0
:104FE80003033B613B689A683B689B691B02134358
:104FF8003A6913433B613B6923F4406323F00C0394
:105008003B613B6923F4704323F0F0033B613B6849
:10501800DA683B68DB691B0213433A6913433B6157
:105028003B681B691A013B681B6A1B0313433A69F7
:1050380013433B61FB6823F02203FB603B685A681B
:105048003B685B691B011343FA681343FB607B6889
:105058001B687A699A607B681B683A699A617B6801
:105068001B68FA681A627B68012283F83D200023D6
:1050780018461837BD4680BD80B582B000AF78604D
:1050880039603B68002B03D03B68042B08D00FE045
:105098007B681B6801220021184600F011FB16E00E
:1050A8007B681B6801220421184600F009FB0EE00A
:1050B8007B681B6801220021184600F001FB7B6811
:1050C8001B6801220421184600F0FAFA00BF7B6829
:1050D8001B681A687B681B6842F001021A6000238B
:1050E80018460837BD4680BD80B584B000AFF8606B
:1050F800B9607A60FB6893F83C30012B01D1022338
:10510800B4E0FB68012283F83C20FB68022283F8A4
:105118003D207B680C2B00F29F8001A252F823F0FF
:105128005D51000861520008615200086152000890
:105138009D51000861520008615200086152000840
:10514800DF510008615200086152000861520008EE
:105158001F520008FB681B68B968184600F004F97C
:10516800FB681B689A69FB681B6842F008029A6131
:10517800FB681B689A69FB681B6822F004029A6145
:10518800FB681B689969BB681A69FB681B680A4356
:105198009A6162E0FB681B68B968184600F054F928
:1051A800FB681B689A69FB681B6842F400629A6195
:1051B800FB681B689A69FB681B6822F480629A6125
:1051C800FB681B689969BB681B691A02FB681B6846
:1051D8000A439A6141E0FB681B68B968184600F009
:1051E800A7F9FB681B68DA69FB681B6842F00802CC
:1051F800DA61FB681B68DA69FB681B6822F0040245
:10520800DA61FB681B68D969BB681A69FB681B68A7
:105218000A43DA6121E0FB681B68B968184600F0A8
:10522800FBF9FB681B68DA69FB681B6842F40062DB
:10523800DA61FB681B68DA69FB681B6822F4806224
:10524800DA61FB681B68D969BB681B691A02FB68CD
:105258001B680A43DA6100E000BFFB68012283F89B
:105268003D20FB68002283F83C20002318461037B5
:10527800BD4680BD80B485B000AF786039607B687A
:105288001B68FB607B68334A934213D07B68324AC1
:1052980093420FD07B68B3F1804F0BD07B682F4AC5
:1052A800934207D07B682E4A934203D07B682D4AED
:1052B800934208D1FB6823F07003FB603B685B688E
:1052C800FA681343FB607B68224A934213D07B68D9
:1052D800214A93420FD07B68B3F1804F0BD07B6893
:1052E8001E4A934207D07B681D4A934203D07B68CD
:1052F8001C4A934208D1FB6823F44073FB603B6867
:10530800DB68FA681343FB60FB6823F080023B68A4
:105318005B691343FB607B68FA681A603B689A68AC
:105328007B68DA623B681A687B689A627B68094A1C
:10533800934203D07B68084A934203D13B681A69B9
:105348007B681A637B6801225A6100BF1437BD4627
:1053580080BC7047002C014000340140000400402C
:1053680000080040000C004080B487B000AF7860AF
:1053780039607B681B6A23F001027B681A627B68CC
:105388001B6A7B617B685B683B617B689B69FB6030
:10539800FB6823F07003FB60FB6823F00303FB60EA
:1053A8003B681B68FA681343FB607B6923F00203C0
:1053B8007B613B689B687A6913437B617B68204A01
:1053C800934203D07B681F4A93420CD17B6923F038
:1053D80008037B613B68DB687A6913437B617B69FF
:1053E80023F004037B617B68154A934203D07B68F2
:1053F800144A934211D13B6923F480733B613B69A2
:1054080023F400733B613B685B693A6913433B6172
:105418003B689B693A6913433B617B683A695A6008
:105428007B68FA689A613B685A687B685A637B684C
:105438007A691A6200BF1C37BD4680BC704700BF3E
:10544800002C01400034014080B487B000AF786080
:1054580039607B681B6A23F010027B681A627B68DC
:105468001B6A7B617B685B683B617B689B69FB604F
:10547800FB6823F4E043FB60FB6823F44073FB60A4
:105488003B681B681B02FA681343FB607B6923F0C7
:1054980020037B613B689B681B017A6913437B612E
:1054A8007B68214A934203D07B68204A93420DD1FE
:1054B8007B6923F080037B613B68DB681B017A69A9
:1054C80013437B617B6923F040037B617B68164A49
:1054D800934203D07B68154A934213D13B6923F466
:1054E80080633B613B6923F400633B613B685B6914
:1054F8009B003A6913433B613B689B699B003A698F
:1055080013433B617B683A695A607B68FA689A6121
:105518003B685A687B689A637B687A691A6200BF3D
:105528001C37BD4680BC7047002C01400034014048
:1055380080B487B000AF786039607B681B6A23F459
:1055480080727B681A627B681B6A7B617B685B6818
:105558003B617B68DB69FB60FB6823F07003FB60E1
:10556800FB6823F00303FB603B681B68FA6813437E
:10557800FB607B6923F400737B613B689B681B02BB
:105588007A6913437B617B68214A934203D07B6825
:10559800204A93420DD17B6923F400637B613B6809
:1055A800DB681B027A6913437B617B6923F48063A0
:1055B8007B617B68164A934203D07B68154A934205
:1055C80013D13B6923F480533B613B6923F40053B7
:1055D8003B613B685B691B013A6913433B613B686C
:1055E8009B691B013A6913433B617B683A695A60BE
:1055F8007B68FA68DA613B685A687B68DA637B68BB
:105608007A691A6200BF1C37BD4680BC704700BF6C
:10561800002C01400034014080B487B000AF7860AE
:1056280039607B681B6A23F480527B681A627B6846
:105638001B6A3B617B685B687B617B68DB69FB603D
:10564800FB6823F4E043FB60FB6823F44073FB60D2
:105658003B681B681B02FA681343FB603B6923F431
:1056680000533B613B689B681B033A6913433B61EA
:105678007B68114A934203D07B68104A934209D150
:105688007B6923F480437B613B685B699B017A6992
:1056980013437B617B687A695A607B68FA68DA61D0
:1056A8003B685A687B681A647B683A691A6200BF6B
:1056B8001C37BD4680BC7047002C014000340140B7
:1056C80080B487B000AFF860B9607A60BB6803F057
:1056D8001F03012202FA03F37B61FB681A6A7B69E4
:1056E800DB431A40FB681A62FB681A6ABB6803F05E
:1056F8001F03796801FA03F31A43FB681A6200BFB3
:105708001C37BD4680BC704780B485B000AF786058
:1057180039607B6893F83C30012B01D1022332E0D9
:105728007B68012283F83C207B68022283F83D20B5
:105738007B681B685B68FB607B681B689B68BB6059
:10574800FB6823F07003FB603B681B68FA6813432F
:10575800FB60BB6823F08003BB603B685B68BA688A
:105768001343BB607B681B68FA685A607B681B68D8
:10577800BA689A607B68012283F83D207B68002222
:1057880083F83C20002318461437BD4680BC704778
:1057980080B485B000AF786039600023FB607B6817
:1057A80093F83C30012B01D102233DE07B680122B4
:1057B80083F83C20FB6823F0FF023B68DB68134357
:1057C800FB60FB6823F440723B689B681343FB60F3
:1057D800FB6823F480623B685B681343FB60FB68EB
:1057E80023F400623B681B681343FB60FB6823F4E7
:1057F80080523B681B691343FB60FB6823F400522B
:105808003B685B691343FB60FB6823F480423B6899
:10581800DB691343FB607B681B68FA685A647B6822
:10582800002283F83C20002318461437BD4680BC6C
:10583800704780B582B000AF78607B68002B01D1DB
:1058480001233FE07B6893F83930DBB2002B06D1A7
:105858007B68002283F83820786808F009FC7B68A8
:10586800242283F839207B681B68DA687B681B6808
:1058780022F40052DA60786800F086FD7B681B68C5
:105888001A697B681B6822F490421A617B681B685E
:105898005A697B681B6822F02A025A617B681B6878
:1058A800DA687B681B6842F40052DA607B68002281
:1058B800DA637B68202283F839207B68202283F80A
:1058C8003A20002318460837BD4680BD80B588B009
:1058D80002AFF860B9603B601346FB8000237B6130
:1058E800FB6893F83930DBB2202B40F08380BB682B
:1058F800002B02D0FB88002B01D101237BE0FB6841
:1059080093F83830012B01D1022374E0FB6801229F
:1059180083F83820FB680022DA63FB68212283F8C9
:105928003920FCF7DBF87861FB68FA889A84FB6811
:10593800FA88DA8442E0FB68DB8C9BB2013B9AB2BE
:10594800FB68DA84FB689B68B3F5805F22D13B680B
:1059580000937B6900228021F86800F097FB0346DA
:10596800002B01D0032346E0BB683B613B691B88E1
:105978001A46FB681B68C2F308025A60FB681B6979
:10598800002B03D1BB680233BB6017E0BB6801334F
:10599800BB6013E03B6800937B6900228021F868B4
:1059A80000F074FB0346002B01D0032323E0BB68FF
:1059B8005A1CBA601A78FB681B685A60FB68DB8C53
:1059C8009BB2002BB7D13B6800937B690022402132
:1059D800F86800F05BFB0346002B01D003230AE0C4
:1059E800FB68202283F83920FB68002283F83820DE
:1059F800002300E0022318461837BD4680BD00008A
:105A080080B586B000AFF860B9601346FB80FB68CC
:105A180093F83930DBB2202B53D1BB68002B02D06E
:105A2800FB88002B01D101234CE0FB6893F8383048
:105A3800012B01D1022345E0FB68012283F83820BD
:105A4800BA68FB681A62FB68FA889A84FB68FA8865
:105A5800DA84FB680022DA63FB68212283F83920A4
:105A6800FB681B6B194A9A62FB681B6B184ADA625F
:105A7800FB681B6B174A1A63FB681B6B00225A638F
:105A880007F108037B61FB68186B7B691968FB6881
:105A98001B6804331A46FB88FCF700FEFB681B688A
:105AA8006FF040021A60FB68002283F83820FB6818
:105AB8001B685A69FB681B6842F080025A61002320
:105AC80000E0022318461837BD4680BD0F5F000866
